:100000000C94EC030C9407040C9407040C94070460
:100010000C9407040C9407040C9407040C94270B0D
:100020000C9407040C9407040C9407040C94070424
:100030000C9407040C9455060C9407040C940704C4
:100040000C9407040C9407040C9407040C94070404
:100050000C9407040C9407040C9407040C940704F4
:100060000C9407040C94070408080008080800080A
:100070000008080000000808000800080800080040
:100080000808000000080800080008080000080828
:100090000800080008080000000808080000080818
:1000A00000080808080008080808000808080808E8
:1000B00000000808000008080800080008080008F8
:1000C00000080800080008080000080808000000F0
:1000D00008080008080808000000080800080808C8
:1000E00008000000080800000008080008080808C8
:1000F00000000008080008080808000808080808A8
:10010000000008080008080808000800080800089F
:100110000008080800000808000800080800080097
:100120000808000000080800080008080008000887
:100130000800000008080800080808080008080867
:100140000800080808000000080808080008080857
:10015000080008080808000808000800080800004F
:100160000008080008000808000008080800000847
:100170000808000800080800080008080008080827
:100180000800080808080008080808000808080807
:100190000000000808000800080800000008080027
:1001A0000800080800080008080008000808000007
:1001B00000080800080008080008000808000800F7
:1001C00008080008000808000000080800080008E7
:1001D00008000800080800080008080000000808D7
:1001E00000000008080008000808000000080800D7
:1001F00008080808000808080800000008080008A7
:1002000000080800000008080000000808080008AE
:100210000808000000080800080008080000080896
:10022000080008000808000800080808000008087E
:10023000000808080808000808080808000808005E
:10024000000808080000000808080008080808005E
:10025000080808080008080808000808080008003E
:10026000080800080008080008000808000800083E
:100270000800000008080008000808000800080836
:10028000000800080800080008080800080808001E
:100290000800080800080008080008000808000016
:1002A0000008080008000808000800080800080006
:1002B00008080800080808000800080800080008E6
:1002C00008000800080800080008080800080808D6
:1002D00008000808080800080808000000080808C6
:1002E00008000808080008080800080808080000B6
:1002F00000080808000808080008000808080000AE
:100300000808000800080808000008080008080895
:10031000080008080808000000080800080008088D
:10032000000000080808080808080800000808007D
:100330000808080800080808080800000808080855
:100340000008080808000808000000080800080065
:100350000808000008080808080808080000000845
:100360000800000008080008080808000000080845
:10037000080000080800080808080000080808002D
:100380000808080800080808080000000808000815
:100390000008080000000808000800080800000025
:1003A00008080008080808000808080800000008F5
:1003B00008000800080800080008080800080808E5
:1003C00008080808080800080808080008080808BD
:1003D00000080808080808080808000808080800B5
:1003E00008080808000808080000080808080808A5
:1003F00008080008000808000008080800080008AD
:10040000080008000808080008080808000808088C
:100410000800080808080008080808000808080874
:10042000080808080008000808000000080800087C
:100430000008080008000808080808080808080854
:100440000808000000080800080008080008000864
:100450000808080808080808080808000000080834
:10046000000800080800000008080808080808003C
:10047000000808080008000808000008080800082C
:100480000808080808080808000000080800080014
:1004900008080000000808080800080808080808FC
:1004A00008080808080800000008080008080808EC
:1004B00000080808080808080808000000080800E4
:1004C00008080808080000080800000008080800DC
:1004D00008080800000008080800080808080008C4
:1004E000080808000008080808080808080808089C
:1004F00008000800080800080008080000000808B4
:100500000808080808000800080800080008080093
:100510000800080808000808080808080808000873
:10052000000808000800080800000008080008008B
:10053000080808080808080808080808000800084B
:100540000808000808080008000808080808080843
:100550000008000808000800080808000808080843
:100560000008080808080808080000000808080033
:100570000808080008080808000000080808080023
:1005800008080808080808080008080808080808F3
:1005900008000808080808000808080008000808FB
:1005A00000080008080008000808080008080808F3
:1005B00000080808000008080808000808080800E3
:1005C00008080800000008080000000808080800E3
:1005D00008080000000808000808080800000008D3
:1005E00008000000080808080008080000000808C3
:1005F00008080008080000000808000800080800B3
:100600000800080800000008080808000808080892
:10061000000808000000080800080808080000009A
:100620000808080800080800000008080000000882
:10063000080008080808000000080800080008086A
:100640000000000808000000080808080008080862
:100650000800080808080008080808000808000042
:10066000000808000800080808000808080008003A
:10067000080800000008080000000808000800083A
:100680000800000008080808000808080800080812
:1006900008080808080000000808080808080800FA
:1006A00000000808080808080808080808080808DA
:1006B00008080808080808080808080808080808BA
:1006C00008206129204D617271756573696E610A38
:1006D0000D20622920416A7573746520646520527B
:1006E000656C6F6A0A0D2063292053616C69720082
:1006F00020496E74726F64757A636120656C207432
:100700006578746F2028636164656E61206465207C
:100710003820627974657329207920707265736955
:100720006F6E6520656E7465720020507265736926
:100730006F6E65206C61207465636C6120656E74FA
:100740006572207061726120636F6E666967757291
:10075000617220656C2072656C6F6A206F20657312
:100760006361706520706172612072656772657384
:10077000617220616C206D656E75207072696E63A8
:100780006970616C0020436F6E66696775726520E1
:10079000656E206261736520616C20666F726D61A9
:1007A000746F206465203234206872732C20656E6B
:1007B000206361736F20646520756E2076616C6FB5
:1007C0007220696E76616C69646F20657374652050
:1007D000736572612030000011241FBECFEFCDBFC2
:1007E00011E0A0E0B1E0EEEDFBE102C005900D925A
:1007F000A439B107D9F715E0A4E9B1E001C01D9211
:10080000A73CB107E1F70E943D040C94EE0D0C9457
:10081000000083B190E0809590958170907008956C
:1008200083B190E024E0969587952A95E1F780952D
:10083000909581709070089583B190E035E0969521
:1008400087953A95E1F7809590958170907008951D
:100850000F931F93082F162F2A9A47E00E940A072A
:100860002A980E94410A2A9A48E0612F802F0E940C
:100870000A072A981F910F910895CF92DF92EF9265
:10088000FF920F93CF93DF93CDB7DEB723970FB6C9
:10089000F894DEBF0FBECDBF0E94390C0E940A0B38
:1008A00083E30E94660A15C00E941F0B882389F00B
:1008B0008091A1018F5F8093A1010E94410A0E9453
:1008C000A80A882331F085E08093A10181E080931C
:1008D0009C018091A101853038F30E94860C8091A3
:1008E0009C01813019F40E94370D05C040E060E0A2
:1008F00080E00E94510B0E94D70B69837A838B831F
:10090000A7EBB5E0FE01319683E001900D92815096
:10091000E1F70E94310685E19FE090939E0180936C
:100920009D0183E08093B4051BC000919F018091DD
:100930009D0190919E010E94320CE02FF0E0EC5658
:10094000FE4F808380919F018F5F80939F018091F4
:100950009D0190919E01019690939E0180939D012F
:1009600080919F01883008F3E7EBEE2EE5E0FE2E44
:100970006E010894C11CD11C8091BB05882379F5B8
:1009800018992DC08091B4058F5F8093B405823093
:1009900059F0833089F08130F1F40E94BB068FE07A
:1009A000809391018EE005C00E94BB068CE080938D
:1009B00091018093920113C00E94BB068FE0809347
:1009C00091018EE0809392011092BA051092B305C6
:1009D0001092B50504C00E94BB061092B405809128
:1009E000BB058130F1F418990DC08091B705409195
:1009F000B9056091B8058B3010F080E001C08F5FC1
:100A00000E94510B1C990DC06091B8054091B90529
:100A10006B3310F080E003C06F5F8091B7050E94D8
:100A2000510B1D990AC08091BB05813019F41092B9
:100A3000BB0503C081E08093BB058091B405813084
:100A400059F4809190012EE030E041E050E06FE0F9
:100A500070E090E00E942D098091B405823061F52C
:100A60002091920130E06091910170E080919001BD
:100A700041E050E090E00E942D0910929F0118C0C3
:100A8000E0919F01F0E0EC56FE4F408150E08091F4
:100A9000A00190919F01805E990F990F26E069E176
:100AA000891B0E941D0780919F018F5F80939F018A
:100AB00080919F01883020F38091B405833001F14B
:100AC000E091B805F0E0EE0FFF1FE050FF4F2181ED
:100AD00040816091910102E0809190010E94400864
:100AE000E091B705F0E0EE0FFF1FE858FE4F2181BF
:100AF00040816091910104E0809190010E9475080D
:100B00000E941F0B882309F437CF609191018091D7
:100B100090010E9428040E94580B6AE086E00E941F
:100B2000550C0E94F70B0E94D70B69837A838B8345
:100B3000D701F60183E001900D928150E1F7809199
:100B4000A0018F5F8093A0018091B405833009F0EC
:100B500013CF9091BA059F5F9093BA058091B3052A
:100B60008F5F8093B3058C3339F48091B5058F5F27
:100B70008093B5051092B3058091B505882309F5DA
:100B80009F31F8F410929F0118C0E0919F01F0E0AE
:100B9000EC56FE4F408150E090919F018091BA0544
:100BA000815E990F990F26E06AE0891B0E941D075C
:100BB00080919F018F5F80939F0180919F0188307A
:100BC00020F38091BA058E3129F481E08093B60537
:100BD0000E94BB068091B5058530A8F58091BA05C5
:100BE0008E3188F18091B605813069F520919201AE
:100BF00030E06091910170E08091900141E050E01F
:100C000090E00E942D09E091B805F0E0EE0FFF1F83
:100C1000E050FF4F218140816091910102E080917D
:100C200090010E944008E091B705F0E0EE0FFF1F31
:100C3000E858FE4F218140816091910104E080914C
:100C400090010E9475088091B505853008F494CE16
:100C50001092B5051092B6051092BA050E94BB0617
:100C60008BCEE0E8F0E0808182608083E1E8F0E014
:100C700080818961808384E690E0909387008093EF
:100C80008600EFE6F0E080818160808378940895AB
:100C90008091A201882319F480E090E008951092D9
:100CA000A2012B9A81E090E008951F920F920FB657
:100CB0000F9211242F933F934F935F936F937F93E2
:100CC0008F939F93AF93BF93EF93FF930E94040A78
:100CD00086B386BBFF91EF91BF91AF919F918F91AA
:100CE0007F916F915F914F913F912F910F900FBE28
:100CF0000F901F9018958430F9F0853038F48230C9
:100D000089F08330A0F4813079F507C0863001F195
:100D10008630C0F0873041F520C05A9A5B985C98C5
:100D20005D9A26C05A985B9A5C985D9809C05A985B
:100D30005B985C9A5D980AC05A9A5B9A5C985D9A37
:100D40005E9A17C05A9A5B985C9A5D9A5E980AC040
:100D50005A985B9A5C9A5D9804C05A9A5B9A5C9A1E
:100D60005D9A5E9A5F9A08955A985B985C985D9830
:100D70005E985F9808951092A50520C01092A60570
:100D800014C0E091A6058091A505F0E095E0EE0F76
:100D9000FF1F9A95E1F7E80FF11DEB55FE4F10820A
:100DA0008091A6058F5F8093A6058091A60580326D
:100DB00040F38091A5058F5F8093A5058091A505DF
:100DC0008032E0F208951092A5051FC089E112C09B
:100DD000E091A6058091A505F0E025E0EE0FFF1F4C
:100DE0002A95E1F7E80FF11DEB55FE4F1082809137
:100DF000A6058F5F8093A6058091A605803240F3FB
:100E00008091A5058F5F8093A5058091A50580320F
:100E1000E8F20895E62F25EA31E03093BD052093EE
:100E2000BC05F0E055E0EE0FFF1F5A95E1F7E80F23
:100E3000F11DE20FF31F408308958F929F92AF92AE
:100E4000BF92CF92DF92EF92FF920F931F93CF93B7
:100E5000DF93CDB7DEB721970FB6F894DEBF0FBE94
:100E6000CDBFA82EB62EC22ECA01815490404A97FB
:100E700018F020E431E009C09A01220F331F220F3D
:100E8000331F240F351F25543140CA01815690402D
:100E90004A9748F49A01220F331F220F331F240F61
:100EA000351F23563140CA014E970A9748F49A01DC
:100EB000220F331F220F331F240F351F2C523F4F99
:100EC000CA018F970B9748F49A01220F331F220F04
:100ED000331F240F351F275E3F4F4901880C991C93
:100EE000880C991C820E931E28E630E0820E931E19
:100EF00090E01BC02A98F70144914C0D6D2D8A2D6E
:100F0000801B99830E940A072A9A0F5F1F4F08943B
:100F1000E11CF11C99810530110561F79F5F25E007
:100F200030E0820E931E953031F0740100E010E045
:100F3000D92EDB0CDFCF21960FB6F894DEBF0FBEA3
:100F4000CDBFDF91CF911F910F91FF90EF90DF9078
:100F5000CF90BF90AF909F908F900895DC01FB01E0
:100F6000208131818D919C911197918380832D9364
:100F70003C9308953F924F925F926F927F928F922F
:100F80009F92AF92BF92CF92DF92EF92FF920F9318
:100F90001F93CF93DF93EC01FB016A01302EA9016F
:100FA000461B570B57FF03C0509541955F4FC60135
:100FB0008C1B9D0B97FF03C0909581959F4F8417C5
:100FC000950754F4CF01FE01EC01C90196016C01B3
:100FD00011E0412E512C02C044245524CC16DD06CC
:100FE00034F4C6016E01EC01C9019F01FC01460108
:100FF0008C1A9D0A5901AE1ABF0AB7FE04C0B094FC
:10100000A194B108B394E217F30724F4B1E06B2E76
:10101000712C03C066246A94762CC40162E070E0EF
:101020000E94C70D8B017F0116C081E04816510454
:1010300021F4432D6C2F8E2D03C0432D6E2D8C2F4C
:101040000E940A070A191B0917FF04C0E60CF71CC7
:10105000080D191D2196CC16DD063CF7DF91CF91C6
:101060001F910F91FF90EF90DF90CF90BF90AF90C6
:101070009F908F907F906F905F904F903F900895DA
:10108000CF92DF92EF92FF920F931F93F82E162FBD
:10109000E42ED22EC02E8091A301882381F080916E
:1010A000A401882361F02091A40130E04091A301C4
:1010B00050E070E000E08F2D90E00E94BA072D2DE7
:1010C00030E04E2D50E0612F70E00C2D8F2D90E020
:1010D0000E94BA07E092A301D092A4011F910F9140
:1010E000FF90EF90DF90CF900895CF92DF92EF9234
:1010F000FF920F931F93F82E162FE42ED22EC02EA0
:101100008091A905882381F08091AA05882361F048
:101110002091AA0530E04091A90550E070E000E080
:101120008F2D90E00E94BA072D2D30E04E2D50E01B
:10113000612F70E00C2D8F2D90E00E94BA07E09295
:10114000A905D092AA051F910F91FF90EF90DF9013
:10115000CF900895EF92FF920F931F93E82E162FD2
:10116000F42E022F603120F45D985E985F9803C0E2
:101170005A985B985C981092A7050EC02A988091A7
:10118000A7054F2D612F8E0D0E940A072A9A809184
:10119000A7058F5F8093A7058091A705801770F33F
:1011A0001F910F91FF90EF900895EF92FF920F9390
:1011B0001F93E82E162FF42E022F603120F45D9835
:1011C0005E985F9803C05A985B985C981092A70548
:1011D0000EC02A986091A705610F4F2D8E2D0E9499
:1011E0000A072A9A8091A7058F5F8093A7058091AF
:1011F000A705801770F31F910F91FF90EF9008954E
:10120000EF92FF920F931F93082FE62EF42E122FCA
:101210002A980E94AA082A9A2A986E2D6150610F76
:10122000212F4F2D802F0E94AA082A9A2A98212F19
:101230004F2D6E2D802F0E94D5082A9A2A98015092
:10124000212F4F2D6E2D802F810F0E94D5082A9AB5
:101250001F910F91FF90EF9008952F923F924F9220
:101260005F926F927F928F929F92AF92BF92CF9236
:10127000DF92EF92FF920F931F93CF93DF93CDB73F
:10128000DEB724970FB6F894DEBF0FBECDBF7C014A
:101290006B018A0151E0852E912C821A930AC901B3
:1012A000880F991F66247724681A790A3C832B8358
:1012B0002A98A02E462EBB805E2C6B2D6C0D402FE5
:1012C0008E2D0E940A072A9A2A986C2D6B19402F9E
:1012D0008E2D0E940A072A9A2A98402F6C2D8B2D5A
:1012E0008E0D0E940A072A9A2A98402F6C2D8E2D67
:1012F0008B190E940A072A9A81E090E09A838983D9
:101300002224332462C097FC0BC0EB81FC8131970F
:10131000FC83EB8382E090E0680E791E860C971CBC
:101320000894211C311CE981FA813296FA83E98301
:101330008E0E9F1E2A980B81102F140DD22CD50CC7
:101340004A2D612F8D2D0E940A072A9A2A98E52C92
:10135000E2184A2D612F8E2D0E940A072A9A2A9898
:10136000142D101B4A2D612F8D2D0E940A072A9AD9
:101370002A984A2D612F8E2D0E940A072A9A2A98B0
:10138000122D140DE02EE50C4A2D612F8E2D0E949A
:101390000A072A9A2A98F52DF01B0F2F4A2D612F44
:1013A0008F2F0E940A072A9A2A98142D12194A2D63
:1013B000612F8E2D0E940A072A9A2A984A2D612FA2
:1013C000802F0E940A072A9A2A988B819C812816CE
:1013D00039060CF498CF24960FB6F894DEBF0FBEF2
:1013E000CDBFDF91CF911F910F91FF90EF90DF90D4
:1013F000CF90BF90AF909F908F907F906F905F90B5
:101400004F903F902F9008958091A70588B92A9A10
:10141000299A1092A80523C0E091A7058091A805FC
:10142000F0E065E0EE0FFF1F6A95E1F7E81BF109B8
:10143000EB55FE4F878D0E947B068091A70580317A
:1014400020F45D985E985F9803C05A985B985C980A
:101450002B9A2B988091A8058F5F8093A805809187
:10146000A8058032C8F28091A7058F5F8093A705F9
:101470008091A705803211F41092A7052A98299827
:101480000895CF93DF93CDB7DEB722970FB6F894C8
:10149000DEBF0FBECDBF88E289838EE08A83000065
:1014A000000089818150898389818823C1F78A81DD
:1014B00081508A838A81882391F722960FB6F89407
:1014C000DEBF0FBECDBFDF91CF9108950F931F9365
:1014D0002F933F934F935F9350E046E038E120E233
:1014E0003093C1004093C200082F10E01093C50054
:1014F0000093C4002093C0005F914F913F912F91C2
:101500001F910F9108955F936F938F935091C00037
:1015100055FFFCCF8093C60061E060FB55F9509306
:10152000C0008F916F915F9108955F935091C000BB
:1015300057FFFCCF8091C6005F9108955F93509153
:10154000C00057FFFCCF8091C600DDDF5F9108959A
:101550008091C60008954F938F9340E089918093C6
:10156000C6008413FBCF8F914F9108958F939F9363
:101570002F931F930F9300E317E3982F807F82959B
:10158000282F2A5F24FF800F24FD810FBCDF9F706E
:10159000892F282F2A5F24FF800F24FD810FB3DFBE
:1015A0000F911F912F919F918F9108958F939F93EA
:1015B0004F93482F892FDADF842FD8DF4F919F91E7
:1015C0008F910895329B81E080E008950F931F93DF
:1015D00000E317E38A3010F0810F01C0800F1F91E4
:1015E0000F910895E0E7F0E0108290E29093B6004A
:1015F00022E02093B00097E09093B1001092B200E7
:1016000097BB8295880F807E81508093B3002083A2
:1016100078940895E0E7F0E0108280E28093B600CD
:1016200092E09093B00087E08093B1001092B200F6
:1016300087BB8DE78093B300908378940895809161
:10164000AC05882311F01092AC0590E008951F922C
:101650000F920FB60F9211248F938091AB058F5F7D
:101660008093AB058091AB058D3728F01092AB05C8
:1016700081E08093AC058F910F900FBE0F901F906B
:101680001895E1E6F0E090E8908382E08083000026
:101690000000000000000000908380830000000034
:1016A00008958093AD056093AE054093AF0508950E
:1016B0008091AF058F5F8093AF058091AF058C332C
:1016C000C0F01092AF058091AE058F5F8093AE059C
:1016D0008091AE058C3368F01092AE058091AD0517
:1016E0008F5F8093AD058091AD058C3010F0109226
:1016F000AD0508958093B0058091B0056AE00E9421
:10170000BB0D8093B1058091B1058A30B8F480910A
:10171000B0050E94BB0D9093B2058091B10590E099
:1017200024E0880F991F2A95E1F78093B1059091E5
:10173000B1058091B205890F8093B0058091B00505
:1017400090E00895CF92DF92EF92FF920F931F9354
:10175000CF93DF93CDB7DEB723970FB6F894DEBFF4
:101760000FBECDBFEE24FF2487018091AD050E94FE
:101770007A0BC82E8091AE050E947A0BD82E8091EC
:10178000AF050E947A0BEC2CFD2C082FC801B70185
:1017900023960FB6F894DEBF0FBECDBFDF91CF9179
:1017A0001F910F91FF90EF90DF90CF900895CF930E
:1017B000DF93CDB7DEB723970FB6F894DEBF0FBE29
:1017C000CDBF60E070E080E090E02091AD05309109
:1017D000AE054091AF05622F732F842F23960FB66D
:1017E000F894DEBF0FBECDBFDF91CF910895CF93A8
:1017F000DF93CDB7DEB726970FB6F894DEBF0FBEE6
:10180000CDBF0E94A20B6C837D838E83DE01119677
:10181000FE01349683E001900D928150E1F78981B9
:101820000E94B60A8AE30E94830A8A810E94B60A4D
:101830008AE30E94830A8B810E94B60A26960FB61D
:10184000F894DEBF0FBECDBFDF91CF910895FD9814
:10185000FC98FB980895F999FECF81BD60BDFA9A76
:10186000F99A0895F999FECF81BDF89A80B590E074
:1018700008958EE084B98AE085B98FE087B918B8F9
:101880008CEF8AB91BB80895CF93DF93EC0105C0A4
:101890002196F90184910E94830A9E01FE018491A0
:1018A0008823B1F7DF91CF9108950F931F93082FED
:1018B000162F8BE10E94830A8BE50E94830A812FF9
:1018C0006AE00E94BB0D805D0E94830A812F6AE05E
:1018D0000E94BB0D892F805D0E94830A8BE30E94CA
:1018E000830A802F6AE00E94BB0D805D0E94830AFC
:1018F000802F6AE00E94BB0D892F805D0E94830AC1
:1019000086E60E94830A1F910F9108958BE10E9441
:10191000830A8BE50E94830A82E30E94830A8AE499
:101920000E94830A0895FF920F931F930E949E0ABC
:10193000F82E81E38F1510F490E3F92E0E949E0A91
:10194000082F81E3F81629F4023318F080E3F82E0B
:1019500000E38AE30E94830A0E949E0A182F8633BE
:1019600008F010E30E949E0A8051EAE01E9F900159
:101970001124820F0051FE9EF001112440E0682FD7
:10198000802F8E0F0E94510B0E94580B1F910F91B8
:10199000FF900895EF92FF921F93CF93DF937C0106
:1019A0001092C60547C00E949E0A182F8830A9F4DD
:1019B0008091C6058823F1F163E08E5F0E94550C8B
:1019C00080E20E94830A8091C60563E08E5F0E94D8
:1019D000550C8091C60581502BC0E091C605E701EA
:1019E0002196803269F1F0E0E254FA4F8083682F4B
:1019F000C7010E942B0C9091C6059F5F9093C6056E
:101A00007E011D30B9F488E0891B0BC0F0E0E25480
:101A1000FA4F108260E0CE010E942B0C8091C40529
:101A20008F5F8093C405E091C405E83078F388E0C7
:101A30008093C6058091C605883008F4B4CF0FC0E6
:101A4000F0E0E254FA4F108260E0C7010E942B0CD4
:101A50008091C6058F5F8093C6057E01EBCF0E9403
:101A6000950ADF91CF911F91FF90EF900895CF924B
:101A7000DF92EF92FF920F931F93CF93DF93109219
:101A8000C50591ECC92E96E0D92ECAE2D7E085E8CB
:101A9000E82E87E0F82E00EF16E05FC00E94860C6B
:101AA00061E081E00E94550CC6010E94440C0E9436
:101AB000950A8236A1F0833609F447C0813609F0D1
:101AC0004AC00E94860CC8010E94440C6AE086E06D
:101AD0000E94550C85E19FE00E94CA0C3CC00E9408
:101AE000860C61E081E00E94550CCE010E94440CFE
:101AF0000E941F0B882341F066E086E00E94550C8F
:101B00000E94580B0E94F70B0E94A80A8D30C1F466
:101B10000E94860C61E081E00E94550CC7010E9482
:101B2000440C66E086E00E94550C0E94930C0E94D3
:101B3000860C61E081E00E94550CCE010E94440CAD
:101B40000E94A80A8B31A1F606C081E08093C505EA
:101B50000E94860C02C01092C5058091C50588239D
:101B600009F49CCFDF91CF911F910F91FF90EF90DF
:101B7000DF90CF900895991B79E004C0991F9617C4
:101B800008F0961B881F7A95C9F78095089597FBF2
:101B9000092E07260AD077FD04D00CD006D00020ED
:101BA0001AF4709561957F4F0895F6F79095819599
:101BB0009F4F0895AA1BBB1B51E107C0AA1FBB1F63
:101BC000A617B70710F0A61BB70B881F991F5A95C9
:0E1BD000A9F780959095BC01CD010895FFCF37
:101BDE000F020E020D030C040B050B050A050A0677
:101BEE0009070908080807080809080A080B050C60
:101BFE00050D060E070F08100810091009100A111E
:101C0E000A120B130B130B130B130B130F160F16CA
:101C1E000F160F160F161313131313131313131389
:101C2E0016101610161016101610190C190C190C79
:101C3E00190C190C1608160816081608160813059E
:101C4E0013011202110310020F050B050808080CF0
:101C5E0008100B130F1313131610160C160813057A
:041C6E000F0C0C004B
:00000001FF
