:100000000C9460030C947B030C947B030C947B0393
:100010000C947B030C947B030C947B030C94F309EA
:100020000C947B030C947B030C947B030C947B0358
:100030000C947B030C94D8040C947B030C947B03EA
:100040000C947B030C947B030C947B030C947B0338
:100050000C947B030C947B030C947B030C947B0328
:100060000C947B030C947B03080800080808000824
:100070000008080000000808000800080800080040
:100080000808000000080800080008080000080828
:100090000800080008080000000808080000080818
:1000A00000080808080008080808000808080808E8
:1000B00000000808000008080800080008080008F8
:1000C00000080800080008080000080808000000F0
:1000D00008080008080808000000080800080808C8
:1000E00008000000080800000008080008080808C8
:1000F00000000008080008080808000808080808A8
:1001000000000808000808080800080000080008A7
:100110000800080800080008000800080800080097
:100120000808000000080800080008080008000887
:100130000800000008080800080808080008080867
:100140000800080808000000080808080008080857
:10015000080008080808000808000800080800004F
:100160000008080008000808000008080800000847
:100170000808000800080800080008080008080827
:100180000800080808080008080808000808080807
:100190000000000808000800080800000008080027
:1001A0000800080800080008080008000808000007
:1001B00000080800080008080008000808000800F7
:1001C00008080008000808000000080800080008E7
:1001D00008000800080800080008080000000808D7
:1001E00000000008080008000808000000080800D7
:1001F00008080808000808080800000008080008A7
:1002000000080800000008080000000808080008AE
:100210000808000000080800080008080000080896
:10022000080008000808000800080808000008087E
:10023000000808080808000808080808000808005E
:10024000000808080000000808080008080808005E
:10025000080808080008080808000808080008003E
:10026000080800080008080008000808000800083E
:100270000800000008080008000808000800080836
:10028000000800080800080008080800080808001E
:100290000800080800080008080008000808000016
:1002A0000008080008000808000800080800080006
:1002B00008080800080808000800080800080008E6
:1002C00008000800080800080008080800080808D6
:1002D00008000808080800080808000000080808C6
:1002E00008000808080008080800080808080000B6
:1002F00000080808000808080008000808080000AE
:100300000808000800080808000008080008080895
:10031000080008080808000000080800080008088D
:10032000000000080808080808080800000808007D
:100330000808080800080808080800000808080855
:100340000008080808000808000000080800080065
:100350000808000008080808080808080000000845
:100360000800000008080008080808000000080845
:10037000080000080800080808080000080808002D
:100380000808080800080808080000000808000815
:100390000008080000000808000800080800000025
:1003A00008080008080808000808080800000008F5
:1003B00008000800080800080008080800080808E5
:1003C00008080808080800080808080008080808BD
:1003D00000080808080808080808000808080800B5
:1003E00008080808000808080000080808080808A5
:1003F00008080008000808000008080800080008AD
:10040000080008000808080008080808000808088C
:100410000800080808080008080808000808080874
:10042000080808080008000808000000080800087C
:100430000008080008000808080808080808080854
:100440000808000000080800080008080008000864
:100450000808080808080808080808000000080834
:10046000000800080800000008080808080808003C
:10047000000808080008000808000008080800082C
:100480000808080808080808000000080800080014
:1004900008080000000808080800080808080808FC
:1004A00008080808080800000008080008080808EC
:1004B00000080808080808080808000000080800E4
:1004C00008080808080000080800000008080800DC
:1004D00008080800000008080800080808080008C4
:1004E000080808000008080808080808080808089C
:1004F00008000800080800080008080000000808B4
:100500000808080808000800080800080008080093
:100510000800080808000808080808080808000873
:10052000000808000800080800000008080008008B
:10053000080808080808080808080808000800084B
:100540000808000808080008000808080808080843
:100550000008000808000800080808000808080843
:100560000008080808080808080000000808080033
:100570000808080008080808000000080808000823
:10058000080800080008080008000808000800081B
:1005900008080008080808000808080000080808FB
:1005A00008000808080800080808000000080800FB
:1005B00000000808080800080800000008080008F3
:1005C00008080800000008080000000808080800E3
:1005D00008080000000808080800080800000008D3
:1005E00008000800080800080008080000000808C3
:1005F00008080008080808000808000000080800AB
:10060000080808080000000808080800080800009A
:10061000000808000000080800080808080000009A
:10062000080800080008080000000808000000088A
:100630000808080008080808000808080800080852
:10064000080800080800000008080008000808085A
:10065000000808080008000808000000080800005A
:100660000008080008000808000000080808080042
:10067000080808080008080808080808000000081A
:1006800008080808080800000008080808080820EA
:10069000496E74726F64757A636120656C20446979
:1006A000722E204E6F646F2028627974652920793C
:1006B0002070726573696F6E6520656E7465720077
:1006C00011241FBECFEFCDBF12E0A0E0B1E0E6E500
:1006D000F7E102C005900D92AC36B107D9F716E0EC
:1006E000ACE6B2E001C01D92A738B107E1F70E9465
:1006F000A8030C94AA0B0C940000982F5A985B98AE
:100700005C985D985E985F981092700207C02B9875
:100710002B9A809170028F5F80937002809170029B
:100720008917A8F308950F931F93082F162F2A9A5D
:1007300047E00E943E052A980E940D092A9A48E047
:10074000612F802F0E943E052A981F910F910895D6
:100750000F938EE084B98AE085B98FE087B918B825
:100760008CEF8AB91BB881E00E9432098CE080933B
:100770006E0283E080936F020E94D6090E94B40447
:100780002091020130E06091010170E08091000150
:1007900041E050E090E00E94F20705E020E042E5F1
:1007A00050E063E18EE10E94510520E045E450E015
:1007B00063E18AE10E94510520E04CE450E063E1EE
:1007C00086E10E94510520E04FE450E063E182E1C0
:1007D0000E94510520E04AE450E063E18EE00E946F
:1007E000510504E020E045E450E063E189E00E9427
:1007F000510520E04EE450E063E185E00E945105A0
:1008000006E020E040E550E069E18EE10E945105FC
:1008100020E042E550E069E18AE10E94510520E0D4
:100820004FE450E069E186E10E94510520E043E495
:1008300050E069E182E10E94510520E045E450E08A
:1008400069E18EE00E94510520E043E550E069E156
:100850008AE00E94510520E04FE450E069E186E023
:100860000E94510560910101E0917102F0E0EE0FEC
:10087000FF1FEE0FFF1FED5FFE4F2381260F8091BC
:100880000001E0917102F0E0EE0FFF1FEE0FFF1F7D
:10089000ED5FFE4F4281480FE0917102F0E0EE0FF4
:1008A000FF1FEE0FFF1FED5FFE4F9181690FE0917B
:1008B0007102F0E0EE0FFF1FEE0FFF1FED5FFE4F26
:1008C000908107E0890F0E94B30720910201245014
:1008D0006091010142E0809100010E9430070E9476
:1008E000EB098823C9F160910101809100010E9408
:1008F00093030E94240A80916C0290916D020196EC
:1009000090936D0280936C02809170028F5F809350
:10091000700280916C0290916D02CC9759F4809195
:1009200071028F5F8093710281E090E090936D027D
:1009300080936C0280917002883019F481E080937A
:100940007002809171028C3039F480916E028F5F59
:1009500080936E021092710280916F028C3009F0C8
:100960000FCF10926F020CCFE0E8F0E08081826040
:100970008083E1E8F0E080818961808384E690E013
:100980009093870080938600EFE6F0E0808181609D
:1009900080837894089580917202882319F480E00E
:1009A00090E00895109272022B9A81E090E00895F1
:1009B0001F920F920FB60F9211242F933F934F93D4
:1009C0005F936F937F938F939F93AF93BF93EF93B7
:1009D000FF930E94C80886B386BBFF91EF91BF9139
:1009E000AF919F918F917F916F915F914F913F91C7
:1009F0002F910F900FBE0F901F9018958430F9F033
:100A0000853038F4823089F08330A0F4813079F574
:100A100007C0863001F18630C0F0873041F520C034
:100A20005A9A5B985C985D9A26C05A985B9A5C9833
:100A30005D9809C05A985B985C9A5D980AC05A9A6A
:100A40005B9A5C985D9A5E9A17C05A9A5B985C9A1A
:100A50005D9A5E980AC05A985B9A5C9A5D9804C049
:100A60005A9A5B9A5C9A5D9A5E9A5F9A08955A9830
:100A70005B985C985D985E985F980895E62F23E7F1
:100A800032E030937E0620937D06F0E095E0EE0F95
:100A9000FF1F9A95E1F7E80FF11DE20FF31F408366
:100AA00008958F929F92AF92BF92CF92DF92EF9272
:100AB000FF920F931F93CF93DF93CDB7DEB72197AC
:100AC0000FB6F894DEBF0FBECDBFA82EB62EC02E37
:100AD000222351F4CA01880F991F880F991F480FCC
:100AE000591F4554514023C0213051F4CA01880F89
:100AF000991F880F991F480F591F4356514017C01F
:100B0000223051F4CA01880F991F880F991F480F8E
:100B1000591F4C5F5E4F0BC0233049F4CA01880F48
:100B2000991F880F991F480F591F4C5E5F4F4A014C
:100B3000880C991C880C991C840E951E28E630E0C0
:100B4000820E931E90E01BC02A98F70144914C0D31
:100B50006D2D8A2D801B99830E943E052A9A0F5F76
:100B60001F4F0894E11CF11C99810530110561F7B4
:100B70009F5F25E030E0820E931E953031F07401C6
:100B800000E010E0D92EDB0CDFCF21960FB6F894F1
:100B9000DEBF0FBECDBFDF91CF911F910F91FF90B0
:100BA000EF90DF90CF90BF90AF909F908F9008957F
:100BB0009F92AF92BF92CF92DF92EF92FF920F93EC
:100BC0001F93182FD62E942EE22EB02E042F081B22
:100BD000E61AFF24AE2CAA0CCA2CC01A4B2D0E9478
:100BE0003E05E01AF108EE0C11C0CC2041F0D39480
:100BF0004B2D6D2D812F0E943E05CE0C06C04B2D36
:100C00006D2D812F0E943E05CA2C1F5F191568F3B8
:100C10001F910F91FF90EF90DF90CF90BF90AF901A
:100C20009F900895EF92FF920F931F93E82E162F37
:100C3000F42E022F603120F45D985E985F9803C017
:100C40005A985B985C981092730611C02A9A60912A
:100C50007306660F610F809173064F2D8E0D0E94F3
:100C60003E052A98809173068F5F8093730680916A
:100C70007306801758F31F910F91FF90EF9008951E
:100C8000EF92FF920F931F93E82E162FF42E022F50
:100C9000603120F45D985E985F9803C05A985B9825
:100CA0005C981092730611C02A9A60917306610FC6
:100CB00080917306880F4F2D8E0D0E943E052A9855
:100CC000809173068F5F80937306809173068017FF
:100CD00058F31F910F91FF90EF900895EF92FF92BC
:100CE0000F931F93E82E162FF42E022F603120F45D
:100CF0005D985E985F9803C05A985B985C981092D4
:100D0000730610C02A9A60917306610F8091730672
:100D10004F2D8E0D0E943E052A98809173068F5F9D
:100D20008093730680917306801760F31F910F9173
:100D3000FF90EF900895EF92FF920F931F93E82E8C
:100D4000162FF42E022F603120F45D985E985F9884
:100D500003C05A985B985C981092730612C02A9A46
:100D600060917306610F809173064F2D9E2D981B25
:100D7000892F0E943E052A98809173068F5F809389
:100D8000730680917306801750F31F910F91FF90A7
:100D9000EF900895FF920F931F93CF93DF93F82E58
:100DA000162F042F603120F45D985E985F9803C081
:100DB0005A985B985C9810927306C22FD0E02197E6
:100DC00013C02A9A60917306660F610F80917306B3
:100DD000402F9F2D981B892F0E943E052A988091B5
:100DE00073068F5F809373068091730690E08C1773
:100DF0009D073CF3DF91CF911F910F91FF900895D4
:100E0000EF92FF920F931F93E82E162FF42E022FCE
:100E1000603120F45D985E985F9803C05A985B98A3
:100E20005C981092730613C02A9A60917306610F42
:100E300080917306880F4F2D9E2D981B892F0E943D
:100E40003E052A98809173068F5F80937306809188
:100E50007306801748F31F910F91FF90EF9008954C
:100E6000EF92FF920F931F93E82E162FF42E022F6E
:100E7000603120F45D985E985F9803C05A985B9843
:100E80005C98109273060EC02A98809173064F2DBD
:100E9000612F8E0D0E943E052A9A809173068F5F06
:100EA0008093730680917306801770F31F910F91E2
:100EB000FF90EF900895EF92FF920F931F93E82E0B
:100EC000162FF42E022F603120F45D985E985F9803
:100ED00003C05A985B985C98109273060EC02A98CB
:100EE00060917306610F4F2D8E2D0E943E052A9A48
:100EF000809173068F5F80937306809173068017CD
:100F000070F31F910F91FF90EF900895EF92FF9271
:100F10000F931F93082FE62EF42E122F2A980E946B
:100F200030072A9A2A986E2D6150610F212F4F2D7C
:100F3000802F0E9430072A9A2A98212F4F2D6E2D3C
:100F4000802F0E945B072A9A2A980150212F4F2D4B
:100F50006E2D802F810F0E945B072A9A1F910F919F
:100F6000FF90EF900895DF92EF92FF920F931F93FF
:100F7000F82E162FE42ED22E841769F430E0261BAB
:100F8000310937FF03C0309521953F4F402F612F26
:100F90008F2D0E945B074E2D50E02F2D30E01D1548
:100FA00071F4421B530B9A0157FF03C030952195F2
:100FB0003F4F402F612F8F2D0E9430070DC0421BE5
:100FC000530B9A0157FF03C0309521953F4F402F97
:100FD000612F8F2D0E9412061F910F91FF90EF90AD
:100FE000DF9008952F923F924F925F926F927F927F
:100FF0008F929F92AF92BF92CF92DF92EF92FF9229
:101000000F931F93CF93DF93CDB7DEB724970FB61F
:10101000F894DEBF0FBECDBF7C016B018A01A1E059
:101020008A2E912C821A930AC901880F991F66246F
:101030007724681A790A3C832B832A98A42E462E9B
:10104000BB805E2C6B2D6C0D8E2D0E943E052A9A66
:101050002A986C2D6B19402F8E2D0E943E052A9ADE
:101060002A98402F6C2D8B2D8E0D0E943E052A9ABA
:101070002A98402F6C2D8E2D8B190E943E052A9A9E
:1010800081E090E09A8389832224332462C097FC14
:101090000BC0EB81FC813197FC83EB8382E090E015
:1010A000680E791E860C971C0894211C311CE9815E
:1010B000FA813296FA83E9838E0E9F1E2A980B815D
:1010C000102F140DD22CD50C4A2D612F8D2D0E947E
:1010D0003E052A9A2A98E52CE2184A2D612F8E2D7A
:1010E0000E943E052A9A2A98142D101B4A2D612F22
:1010F0008D2D0E943E052A9A2A984A2D612F8E2D09
:101100000E943E052A9A2A98122D140DE02EE50C15
:101110004A2D612F8E2D0E943E052A9A2A98F52D80
:10112000F01B0F2F4A2D612F8F2F0E943E052A9A08
:101130002A98142D12194A2D612F8E2D0E943E05DA
:101140002A9A2A984A2D612F802F0E943E052A9ABA
:101150002A988B819C81281639060CF498CF249606
:101160000FB6F894DEBF0FBECDBFDF91CF911F91B8
:101170000F91FF90EF90DF90CF90BF90AF909F9036
:101180008F907F906F905F904F903F902F90089539
:101190008091730688B92A9A299A1092740623C0FE
:1011A000E091730680917406F0E0B5E0EE0FFF1F4A
:1011B000BA95E1F7E81BF109ED58FD4F878D0E94C4
:1011C000FE0480917306803120F45D985E985F98EC
:1011D00003C05A985B985C982B9A2B988091740660
:1011E0008F5F80937406809174068032C8F280917C
:1011F00073068F5F8093730680917306803211F4BB
:10120000109273062A982998089580E094E0E3E705
:10121000F2E011920197E9F70895CF93DF93CDB7EC
:10122000DEB722970FB6F894DEBF0FBECDBF88E2BF
:1012300089838EE08A830000000089818150898340
:1012400089818823C1F78A8181508A838A81882392
:1012500091F722960FB6F894DEBF0FBECDBFDF9197
:10126000CF9108950F931F932F933F934F935F93C5
:1012700050E046E038E120E23093C1004093C200E4
:10128000082F10E01093C5000093C4002093C00005
:101290005F914F913F912F911F910F9108955F930F
:1012A0006F938F935091C00055FFFCCF8093C60081
:1012B00061E060FB55F95093C0008F916F915F9191
:1012C00008955F935091C00057FFFCCF8091C600F6
:1012D0005F9108955F935091C00057FFFCCF8091BC
:1012E000C600DDDF5F9108958091C60008954F9399
:1012F0008F9340E089918093C6008413FBCF8F9138
:101300004F9108958F939F932F931F930F9300E313
:1013100017E3982F807F8295282F2A5F24FF800F64
:1013200024FD810FBCDF9F70892F282F2A5F24FFA7
:10133000800F24FD810FB3DF0F911F912F919F919B
:101340008F9108958F939F934F93482F892FDADFC2
:10135000842FD8DF4F919F918F910895329B81E028
:1013600080E008950F931F9300E317E38A3010F095
:10137000810F01C0800F1F910F910895E0E7F0E009
:10138000108290E29093B60022E02093B00097E0A4
:101390009093B1001092B20097BB8295880F807E27
:1013A00081508093B300208378940895E0E7F0E0C3
:1013B000108280E28093B60092E09093B00087E0C4
:1013C0008093B1001092B20087BB8DE78093B30089
:1013D00090837894089580917606882311F0109276
:1013E000760690E008951F920F920FB60F92112487
:1013F0008F93809175068F5F809375068091750637
:101400008D3728F01092750681E0809376068F91D3
:101410000F900FBE0F901F901895E1E6F0E090E856
:10142000908382E080830000000000000000000044
:101430009083808300000000089580937706609376
:101440007806409379060895809179068F5F80939E
:101450007906809179068C33C0F0109279068091DC
:1014600078068F5F80937806809178068C3368F0D9
:1014700010927806809177068F5F8093770680912F
:1014800077068C3010F010927706089580937A06D4
:1014900080917A066AE00E949E0B80937B06809181
:1014A0007B068A30B8F480917A060E949E0B909356
:1014B0007C0680917B0690E024E0880F991F2A9596
:1014C000E1F780937B0690917B0680917C06890FE3
:1014D00080937A0680917A0690E00895CF92DF9209
:1014E000EF92FF920F931F93CF93DF93CDB7DEB7A9
:1014F00023970FB6F894DEBF0FBECDBFEE24FF24B6
:101500008701809177060E94460AC82E809178064E
:101510000E94460AD82E809179060E94460AEC2C39
:10152000FD2C082FC801B70123960FB6F894DEBF33
:101530000FBECDBFDF91CF911F910F91FF90EF9024
:10154000DF90CF900895CF93DF93CDB7DEB7239789
:101550000FB6F894DEBF0FBECDBF60E070E080E054
:1015600090E0209177063091780640917906622FBD
:10157000732F842F23960FB6F894DEBF0FBECDBF16
:10158000DF91CF910895CF93DF93CDB7DEB7269744
:101590000FB6F894DEBF0FBECDBF0E946E0A6C83FB
:1015A0007D838E83DE011196FE01349683E00190E7
:1015B0000D928150E1F789810E9482098AE30E949D
:1015C0004F098A810E9482098AE30E944F098B8118
:1015D0000E94820926960FB6F894DEBF0FBECDBFDB
:1015E000DF91CF910895FD98FC98FB980895F999A3
:1015F000FECF81BD60BDFA9AF99A0895F999FECFA0
:1016000081BDF89A80B590E00895CF93DF93EC0107
:1016100005C02196F90184910E944F099E01FE01A7
:1016200084918823B1F7DF91CF910895CF93DF9311
:1016300010928506CFE8D6E003C0CE010E94050BCC
:10164000809185068823C9F3DF91CF9108950F9388
:101650001F93082F162F8BE10E944F098BE50E94E4
:101660004F09812F6AE00E949E0B805D0E944F0906
:10167000812F6AE00E949E0B892F805D0E944F0996
:101680008BE30E944F09802F6AE00E949E0B805DD1
:101690000E944F09802F6AE00E949E0B892F805D77
:1016A0000E944F0986E60E944F091F910F910895ED
:1016B0008BE10E944F098BE50E944F0982E30E9453
:1016C0004F098AE40E944F090895CF93DF93EC01FC
:1016D000109286062AC00E946A09682F80918606A9
:1016E0006830A9F4882309F163E08E5F0E94270B1C
:1016F00080E20E944F098091860663E08E5F0E941F
:10170000270B809186068150809386060EC0E82FB5
:10171000F0E0E158F94F6083CE010E94F70A809112
:1017200086068F5F80938606219680918606863096
:1017300090F20E946109DF91CF910895991B79E0A1
:1017400004C0991F961708F0961B881F7A95C9F751
:0617500080950895FFCF13
:101756000F080800F80000FCF90000F9FC0000F88A
:1017660000000000F8000000F8000000080000007B
:10177600F8000000F8000000F8000000F800000083
:10178600F8000003080808080808080808080808F8
:1017960003080808080808080808080808030808CD
:1017A60008080808080808080808030808080808B8
:1017B60008080808080808030808080808080808A8
:1017C6000808080803080808080808080808080898
:1017D600080308080808080808080808080803088D
:1017E6000808080808080808080808030808080878
:1017F6000808080808080808030808080808080868
:101806000808080808030808080808080808080857
:101816000808030808080808040808080804040853
:101826000808040404080804040404080208080854
:101836000808080808080808080208080808080828
:101846000808080808080208080808080808080818
:101856000808080208080808080808080808080808
:1018660002080808080808080808080808020808FE
:1018760008080808080808080808020808080808E8
:1018860008080808080808020808080808080808D8
:1018960008080808020808080808080808080808C8
:1018A60008020808080808080808080808080208BE
:0C18B600080808080808080808080802CC
:00000001FF
