:100000000C9454030C946F030C946F030C946F03C3
:100010000C946F030C946F030C946F030C94B20B4D
:100020000C946F030C946F030C946F030C946F0388
:100030000C946F030C9465070C946F030C946F037E
:100040000C946F030C946F030C946F030C946F0368
:100050000C946F030C946F030C946F030C946F0358
:100060000C946F030C946F0308080008080800083C
:100070000008080000000808000800080800080040
:100080000808000000080800080008080000080828
:100090000800080008080000000808080000080818
:1000A00000080808080008080808000808080808E8
:1000B00000000808000008080800080008080008F8
:1000C00000080800080008080000080808000000F0
:1000D00008080008080808000000080800080808C8
:1000E00008000000080800000008080008080808C8
:1000F00000000008080008080808000808080808A8
:1001000000000808000808080800080000080008A7
:100110000800080800080008000800080800080097
:100120000808000000080800080008080008000887
:100130000800000008080800080808080008080867
:100140000800080808000000080808080008080857
:10015000080008080808000808000800080800004F
:100160000008080008000808000008080800000847
:100170000808000800080800080008080008080827
:100180000800080808080008080808000808080807
:100190000000000808000800080800000008080027
:1001A0000800080800080008080008000808000007
:1001B00000080800080008080008000808000800F7
:1001C00008080008000808000000080800080008E7
:1001D00008000800080800080008080000000808D7
:1001E00000000008080008000808000000080800D7
:1001F00008080808000808080800000008080008A7
:1002000000080800000008080000000808080008AE
:100210000808000000080800080008080000080896
:10022000080008000808000800080808000008087E
:10023000000808080808000808080808000808005E
:10024000000808080000000808080008080808005E
:10025000080808080008080808000808080008003E
:10026000080800080008080008000808000800083E
:100270000800000008080008000808000800080836
:10028000000800080800080008080800080808001E
:100290000800080800080008080008000808000016
:1002A0000008080008000808000800080800080006
:1002B00008080800080808000800080800080008E6
:1002C00008000800080800080008080800080808D6
:1002D00008000808080800080808000000080808C6
:1002E00008000808080008080800080808080000B6
:1002F00000080808000808080008000808080000AE
:100300000808000800080808000008080008080895
:10031000080008080808000000080800080008088D
:10032000000000080808080808080800000808007D
:100330000808080800080808080800000808080855
:100340000008080808000808000000080800080065
:100350000808000008080808080808080000000845
:100360000800000008080008080808000000080845
:10037000080000080800080808080000080808002D
:100380000808080800080808080000000808000815
:100390000008080000000808000800080800000025
:1003A00008080008080808000808080800000008F5
:1003B00008000800080800080008080800080808E5
:1003C00008080808080800080808080008080808BD
:1003D00000080808080808080808000808080800B5
:1003E00008080808000808080000080808080808A5
:1003F00008080008000808000008080800080008AD
:10040000080008000808080008080808000808088C
:100410000800080808080008080808000808080874
:10042000080808080008000808000000080800087C
:100430000008080008000808080808080808080854
:100440000808000000080800080008080008000864
:100450000808080808080808080808000000080834
:10046000000800080800000008080808080808003C
:10047000000808080008000808000008080800082C
:100480000808080808080808000000080800080014
:1004900008080000000808080800080808080808FC
:1004A00008080808080800000008080008080808EC
:1004B00000080808080808080808000000080800E4
:1004C00008080808080000080800000008080800DC
:1004D00008080800000008080800080808080008C4
:1004E000080808000008080808080808080808089C
:1004F00008000800080800080008080000000808B4
:100500000808080808000800080800080008080093
:100510000800080808000808080808080808000873
:10052000000808000800080800000008080008008B
:10053000080808080808080808080808000800084B
:100540000808000808080008000808080808080843
:100550000008000808000800080808000808080843
:100560000008080808080808080000000808080033
:100570000808080008080808000000080808000823
:10058000080800080008080008000808000800081B
:1005900008080008080808000808080000080808FB
:1005A00008000808080800080808000000080800FB
:1005B00000000808080800080800000008080008F3
:1005C00008080800000008080000000808080800E3
:1005D00008080000000808080800080800000008D3
:1005E00008000800080800080008080000000808C3
:1005F00008080008080808000808000000080800AB
:10060000080808080000000808080800080800009A
:10061000000808000000080800080808080000009A
:10062000080800080008080000000808000000088A
:100630000808080008080808000808080800080852
:10064000080800080800000008080008000808085A
:10065000000808080008000808000000080800005A
:100660000008080008000808000000080808080042
:1006700008080808000820496E74726F64757A6370
:100680006120656C204469722E204E6F646F2028B3
:10069000627974652920792070726573696F6E655F
:1006A00020656E746572000011241FBECFEFCDBFB0
:1006B00012E0A0E0B1E0E4EDFAE102C005900D9295
:1006C000AC33B107D9F712E0ACE3B2E001C01D9240
:1006D000A037B107E1F70E949C030C94690D0C94BC
:1006E0000000982F5A985B985C985D985E985F9888
:1006F0001092580207C02B982B9A809158028F5F56
:1007000080935802809158028917A8F308950F9397
:100710001F93082F162F2A9A47E00E94B7072A989E
:100720000E94CC0A2A9A48E0612F802F0E94B707C6
:100730002A981F910F9108958EE084B98AE085B9B7
:100740008FE087B918B88CEF8AB91BB881E00E9496
:10075000F10A86E08093560283E0809357020E945C
:10076000950B29982091020130E06091010170E021
:100770008091000141E050E090E00E94DA07209172
:100780000201225040913C0260910101655080912C
:1007900000010E94B00820910201235040914002C4
:1007A0006091010165508091000183500E94230AED
:1007B0002091020123504091410260910101635058
:1007C0008091000185500E94F5092091020122507C
:1007D00040914202609101018091000185500E9488
:1007E000DB082091020122504091430260910101F7
:1007F000809100010E943309209102012250409112
:10080000440260910101809100010E9463092091DE
:100810000201225040914502609101016E5F80917A
:1008200000010E94B008209102012250409146022E
:1008300060910101809100010E94230A2091020130
:1008400022504091470260910101809100010E9475
:10085000F509209102012250409148026091010166
:10086000809100018E5F0E94DB08209102012350DD
:1008700040914902609101016350809100018B5FBA
:100880000E94330920910201235040914A02609155
:1008900001016550809100018D5F0E9463094091C4
:1008A0005A0221E06EE180E10E94DB0840915B0288
:1008B00022E06EE180E10E94DB0840915C0223E0CF
:1008C0006EE180E10E94DB0840915D0224E06EE170
:1008D00080E10E94DB0820910201245040913D02FA
:1008E000609101016550809100010E94B008209143
:1008F0000201255040914B026091010165508091A9
:10090000000183500E94230A20910201255040914A
:100910004C026091010162508091000182500E945E
:10092000F50920910201245040914D02609101018E
:100930008091000185500E94DB0820910201245023
:1009400040914E0260910101809100010E943309A3
:1009500020910201245040914F0260910101809149
:1009600000010E946309209102012450409150022D
:10097000609101016E5F809100010E94B00820919A
:1009800002012450409151026091010180910001C7
:100990000E94230A2091020124504091520260914A
:1009A0000101809100010E94F5092091020124506B
:1009B0004091530260910101809100018E5F0E947D
:1009C000DB08209102012550409154026091010101
:1009D0006350809100018B5F0E94330920910201D6
:1009E00025504091550260910101655080910001B0
:1009F0008D5F0E9463098091560290E0FC01EE0F2A
:100A0000FF1FE80FF91FEE0FFF1FEE0FFF1FED5F37
:100A1000FE4F808180933C028091570290E0FC0160
:100A2000EE0FFF1FE80FF91FEE0FFF1FEE0FFF1F66
:100A3000E455FE4F808180933D020E94AA0B8823DB
:100A4000C9F160910101809100010E9487030E9419
:100A5000E30B80913E0290913F02019690933F02FA
:100A600080933E02809158028F5F8093580280915C
:100A70003E0290913F02CC9759F4809159028F5FCA
:100A80008093590281E090E090933F0280933E0270
:100A900080915802883019F481E080935802809147
:100AA0005902853039F4809156028F5F8093560247
:100AB000109259028091590290E0FC01EE0FFF1F45
:100AC000EE0FFF1FE80FF91FED56FE4F8081809358
:100AD0005A028091590290E0FC01EE0FFF1FEE0FC9
:100AE000FF1FE80FF91FED56FE4F818180935B02D7
:100AF0008091590290E0FC01EE0FFF1FEE0FFF1FE7
:100B0000E80FF91FED56FE4F828180935C028091C1
:100B1000590290E0FC01EE0FFF1FEE0FFF1FE80FE0
:100B2000F91FED56FE4F838180935D02809156023E
:100B300090E0FC01EE0FFF1FE80FF91FEE0FFF1F03
:100B4000EE0FFF1FED5FFE4F818180934002809189
:100B5000560290E0FC01EE0FFF1FE80FF91FEE0FA9
:100B6000FF1FEE0FFF1FED5FFE4F8281809341025A
:100B70008091560290E0FC01EE0FFF1FE80FF91F75
:100B8000EE0FFF1FEE0FFF1FED5FFE4F838180937F
:100B900042028091560290E0FC01EE0FFF1FE80F29
:100BA000F91FEE0FFF1FEE0FFF1FED5FFE4F848159
:100BB000809343028091560290E0FC01EE0FFF1FEC
:100BC000E80FF91FEE0FFF1FEE0FFF1FED5FFE4F47
:100BD0008581809344028091560290E0FC01EE0FE3
:100BE000FF1FE80FF91FEE0FFF1FEE0FFF1FED5F56
:100BF000FE4F8681809345028091560290E0FC0171
:100C0000EE0FFF1FE80FF91FEE0FFF1FEE0FFF1F84
:100C1000ED5FFE4F8781809346028091560290E0FF
:100C2000FC01EE0FFF1FE80FF91FEE0FFF1FEE0F85
:100C3000FF1FED5FFE4F8085809347028091560233
:100C400090E0FC01EE0FFF1FE80FF91FEE0FFF1FF2
:100C5000EE0FFF1FED5FFE4F81858093480280916C
:100C6000560290E0FC01EE0FFF1FE80FF91FEE0F98
:100C7000FF1FEE0FFF1FED5FFE4F8285809349023D
:100C80008091560290E0FC01EE0FFF1FE80FF91F64
:100C9000EE0FFF1FEE0FFF1FED5FFE4F838580936A
:100CA0004A028091560290E0FC01EE0FFF1FE80F10
:100CB000F91FEE0FFF1FEE0FFF1FED5FFE4F80814C
:100CC00080933C02809156028C3039F48091570217
:100CD0008F5F80935702109256028091570290E0E6
:100CE000FC01EE0FFF1FE80FF91FEE0FFF1FEE0FC5
:100CF000FF1FE455FE4F818180934B028091570284
:100D000090E0FC01EE0FFF1FE80FF91FEE0FFF1F31
:100D1000EE0FFF1FE455FE4F828180934C028091BD
:100D2000570290E0FC01EE0FFF1FE80FF91FEE0FD6
:100D3000FF1FEE0FFF1FE455FE4F838180934D028E
:100D40008091570290E0FC01EE0FFF1FE80FF91FA2
:100D5000EE0FFF1FEE0FFF1FE455FE4F84818093BF
:100D60004E028091570290E0FC01EE0FFF1FE80F4A
:100D7000F91FEE0FFF1FEE0FFF1FE455FE4F858199
:100D800080934F028091570290E0FC01EE0FFF1F0D
:100D9000E80FF91FEE0FFF1FEE0FFF1FE455FE4F88
:100DA0008681809350028091570290E0FC01EE0F03
:100DB000FF1FE80FF91FEE0FFF1FEE0FFF1FE45597
:100DC000FE4F8781809351028091570290E0FC0191
:100DD000EE0FFF1FE80FF91FEE0FFF1FEE0FFF1FB3
:100DE000E455FE4F8085809352028091570290E037
:100DF000FC01EE0FFF1FE80FF91FEE0FFF1FEE0FB4
:100E0000FF1FE455FE4F8185809353028091570266
:100E100090E0FC01EE0FFF1FE80FF91FEE0FFF1F20
:100E2000EE0FFF1FE455FE4F8285809354028091A0
:100E3000570290E0FC01EE0FFF1FE80FF91FEE0FC5
:100E4000FF1FEE0FFF1FE455FE4F83858093550271
:100E50008091570290E0FC01EE0FFF1FE80FF91F91
:100E6000EE0FFF1FEE0FFF1FE455FE4F80818093B2
:100E70003D02809157028C3009F073CC10925702DA
:100E800070CCE0E8F0E0808182608083E1E8F0E00F
:100E900080818961808384E690E0909387008093CD
:100EA0008600EFE6F0E08081816080837894089589
:100EB00080915E02882319F480E090E008951092FA
:100EC0005E022B9A81E090E008951F920F920FB678
:100ED0000F9211248F9386B386BB8F910F900FBE14
:100EE0000F901F901895843011F1853038F48230BE
:100EF000A1F08330B8F48130C9F509C0863021F102
:100F00008630E0F0873029F1883081F529C05A9A7F
:100F10005B985C985D9A5E980FC05A985B9A5C9853
:100F20005D9809C05A985B985C9A5D980BC05A9A74
:100F30005B9A5C985D9A5E9A5F9808955A9A5B985E
:100F40005C9A5D9A5E980AC05A985B9A5C9A5D9822
:100F500004C05A9A5B9A5C9A5D9A5E9A5F9A089569
:100F60005A985B985C985D985E985F9808950F9387
:100F70001F93082F162F842F0E947307113120F41E
:100F80005D985E985F9803C05A985B985C982B9820
:100F900018B92B9A5A985B985C985D985E985F9800
:100FA00080E003C02B982B9A8F5F8017D9F71F9191
:100FB0000F9108952F923F924F925F926F927F927E
:100FC0008F929F92AF92BF92CF92DF92EF92FF9259
:100FD0000F931F93CF93DF93CDB7DEB724970FB650
:100FE000F894DEBF0FBECDBF7C016B018A0151E0DA
:100FF000852E912C821A930AC901880F991F6624A5
:101000007724681A790A3C832B832A98A02E462ECF
:10101000BB805E2C6B2D6C0D402F8E2D0E94B70770
:101020002A9A2A986C2D6B19402F8E2D0E94B70793
:101030002A9A2A98402F6C2D8B2D8E0D0E94B7076F
:101040002A9A2A98402F6C2D8E2D8B190E94B70753
:101050002A9A81E090E09A8389832224332461C014
:1010600097FC0BC0EB81FC813197FC83EB8382E022
:1010700090E0680E791E860C971C0894211C311C88
:10108000E981FA813296FA83E9838E0E9F1E2A98AF
:101090000B81102F140DD22CD50C4A2D612F8D2DC4
:1010A0000E94B7072A9A2A98E52CE2184A2D612F48
:1010B0008E2D0E94B7072A9A2A98142D101B4A2DAC
:1010C000612F8D2D0E94B7072A9A2A984A2D612FE9
:1010D0008E2D0E94B7072A9A2A98122D140DE02E01
:1010E000E50C4A2D612F8E2D0E94B7072A9A2A9867
:1010F000F52DF01B0F2F4A2D612F8F2F0E94B70760
:101100002A9A2A98142D12194A2D612F8E2D0E9489
:10111000B7072A9A2A984A2D612F802F0E94B70775
:101120002A9A8B819C81281639060CF499CF249633
:101130000FB6F894DEBF0FBECDBFDF91CF911F91E8
:101140000F91FF90EF90DF90CF90BF90AF909F9066
:101150008F907F906F905F904F903F902F90089569
:10116000EF92FF920F931F93E82E162FF42E022F6B
:10117000603120F45D985E985F9803C05A985B9840
:101180005C9810925F020EC02A9860915F02610F16
:101190004F2D8E2D0E94B7072A9A80915F028F5F94
:1011A00080935F0280915F02801770F31F910F910F
:1011B000FF90EF900895EF92FF920F931F93E82E08
:1011C000162FF42E022F603120F45D985E985F9800
:1011D00003C05A985B985C9810925F020EC02A98E0
:1011E00080915F024F2D612F8E0D0E94B7072A9AC2
:1011F00080915F028F5F80935F0280915F02801712
:1012000070F31F910F91FF90EF900895EF92FF926E
:101210000F931F93082FE62EF42E122F2A980E9468
:10122000DB082A9A2A986E2D6150610F212F4F2DCD
:10123000802F0E94DB082A9A2A98212F4F2D6E2D8D
:10124000802F0E94B0082A9A2A980150212F4F2DF2
:101250006E2D802F810F0E94B0082A9A1F910F9146
:10126000FF90EF900895EF92FF920F931F93E82E57
:10127000162FF42E022F603120F45D985E985F984F
:1012800003C05A985B985C9810925F0213C02A9A28
:1012900060915F02610F80915F02880F4F2D9E2D3C
:1012A000981B892F0E94B7072A9880915F028F5F51
:1012B00080935F0280915F02801748F31F910F9126
:1012C000FF90EF900895FF920F931F93CF93DF93BA
:1012D000F82E162F042F603120F45D985E985F98E9
:1012E00003C05A985B985C9810925F02C22FD0E0BE
:1012F000219713C02A9A60915F02660F610F809157
:101300005F02402F9F2D981B892F0E94B7072A98B4
:1013100080915F028F5F80935F0280915F0290E017
:101320008C179D073CF3DF91CF911F910F91FF9098
:101330000895EF92FF920F931F93E82E162FF42E2D
:10134000022F603120F45D985E985F9803C05A9830
:101350005B985C9810925F0212C02A9A60915F02BB
:10136000610F80915F024F2D9E2D981B892F0E9447
:10137000B7072A9880915F028F5F80935F02809108
:101380005F02801750F31F910F91FF90EF90089527
:10139000EF92FF920F931F93E82E162FF42E022F39
:1013A000603120F45D985E985F9803C05A985B980E
:1013B0005C9810925F0210C02A9A60915F02610FE0
:1013C00080915F024F2D8E0D0E94B7072A98809161
:1013D0005F028F5F80935F0280915F02801760F3EE
:1013E0001F910F91FF90EF900895EF92FF920F934E
:1013F0001F93E82E162FF42E022F603120F45D98F3
:101400005E985F9803C05A985B985C9810925F0250
:1014100011C02A9A60915F02610F80915F02880F6C
:101420004F2D8E0D0E94B7072A9880915F028F5F23
:1014300080935F0280915F02801758F31F910F9194
:10144000FF90EF900895EF92FF920F931F93E82E75
:10145000162FF42E022F603120F45D985E985F986D
:1014600003C05A985B985C9810925F0211C02A9A48
:1014700060915F02660F610F80915F024F2D8E0DAC
:101480000E94B7072A9880915F028F5F80935F0266
:1014900080915F02801758F31F910F91FF90EF909A
:1014A00008958F929F92AF92BF92CF92DF92EF9268
:1014B000FF920F931F93CF93DF93CDB7DEB72197A2
:1014C0000FB6F894DEBF0FBECDBFA82EB62EC02E2D
:1014D000222351F4CA01880F991F880F991F480FC2
:1014E000591F4554514017C0213051F4CA01880F8B
:1014F000991F880F991F480F591F435651400BC021
:10150000223049F4CA01880F991F880F991F480F8C
:10151000591F4C5F5E4F4A01880C991C880C991C1E
:10152000840E951E28E630E0820E931E90E01BC0CC
:101530002A98F70144914C0D6D2D8A2D801B9983BB
:101540000E94B7072A9A0F5F1F4F0894E11CF11CF5
:1015500099810530110561F79F5F25E030E0820E2B
:10156000931E953031F0740100E010E0D92EDB0CB1
:10157000DFCF21960FB6F894DEBF0FBECDBFDF914F
:10158000CF911F910F91FF90EF90DF90CF90BF9080
:10159000AF909F908F900895CF93DF93CDB7DEB734
:1015A00022970FB6F894DEBF0FBECDBF88E28983C5
:1015B0008EE08A83000000008981815089838981BF
:1015C0008823C1F78A8181508A838A81882391F791
:1015D00022960FB6F894DEBF0FBECDBFDF91CF913C
:1015E00008950F931F932F933F934F935F9350E072
:1015F00046E038E120E23093C1004093C200082F5A
:1016000010E01093C5000093C4002093C0005F91C8
:101610004F913F912F911F910F9108955F936F9379
:101620008F935091C00055FFFCCF8093C60061E0BE
:1016300060FB55F95093C0008F916F915F910895B1
:101640005F935091C00057FFFCCF8091C6005F911F
:1016500008955F935091C00057FFFCCF8091C60062
:10166000DDDF5F9108958091C60008954F938F93B9
:1016700040E089918093C6008413FBCF8F914F91F6
:1016800008958F939F932F931F930F9300E317E376
:10169000982F807F8295282F2A5F24FF800F24FDBA
:1016A000810FBCDF9F70892F282F2A5F24FF800FB6
:1016B00024FD810FB3DF0F911F912F919F918F9187
:1016C00008958F939F934F93482F892FDADF842FAC
:1016D000D8DF4F919F918F910895329B81E080E0F8
:1016E00008950F931F9300E317E38A3010F0810FE2
:1016F00001C0800F1F910F910895E0E7F0E0108284
:1017000090E29093B60022E02093B00097E090938F
:10171000B1001092B20097BB8295880F807E8150F5
:101720008093B300208378940895E0E7F0E010827E
:1017300080E28093B60092E09093B00087E08093BF
:10174000B1001092B20087BB8DE78093B300908305
:101750007894089580916102882311F010926102BB
:1017600090E008951F920F920FB60F9211248F935D
:10177000809160028F5F80936002809160028D375C
:1017800028F01092600281E0809361028F910F90A7
:101790000FBE0F901F901895E1E6F0E090E890835F
:1017A00082E08083000000000000000000009083C1
:1017B00080830000000008958093620260936302BA
:1017C000409364020895809164028F5F8093640265
:1017D000809164028C33C0F01092640280916302A5
:1017E0008F5F80936302809163028C3368F0109264
:1017F0006302809162028F5F809362028091620235
:101800008C3010F0109262020895809365028091EE
:1018100065026AE00E945D0D809366028091660217
:101820008A30B8F4809165020E945D0D9093670242
:101830008091660290E024E0880F991F2A95E1F7D5
:10184000809366029091660280916702890F80936F
:1018500065028091650290E00895CF92DF92EF9249
:10186000FF920F931F93CF93DF93CDB7DEB72397EC
:101870000FB6F894DEBF0FBECDBFEE24FF24870164
:10188000809162020E94050CC82E809163020E9422
:10189000050CD82E809164020E94050CEC2CFD2CC6
:1018A000082FC801B70123960FB6F894DEBF0FBE0C
:1018B000CDBFDF91CF911F910F91FF90EF90DF90FF
:1018C000CF900895CF93DF93CDB7DEB723970FB6B0
:1018D000F894DEBF0FBECDBF60E070E080E090E026
:1018E000209162023091630240916402622F732F53
:1018F000842F23960FB6F894DEBF0FBECDBFDF91C5
:10190000CF910895CF93DF93CDB7DEB726970FB66B
:10191000F894DEBF0FBECDBF0E942D0C6C837D837B
:101920008E83DE011196FE01349683E001900D92C4
:101930008150E1F789810E94410B8AE30E940E0BDE
:101940008A810E94410B8AE30E940E0B8B810E94C8
:10195000410B26960FB6F894DEBF0FBECDBFDF91C8
:10196000CF910895FD98FC98FB980895F999FECFC2
:1019700081BD60BDFA9AF99A0895F999FECF81BDAB
:10198000F89A80B590E00895CF93DF93EC0105C0FD
:101990002196F90184910E940E0B9E01FE01849113
:1019A0008823B1F7DF91CF910895CF93DF93109201
:1019B0006E02C6E7D6E003C0CE010E94C40C80913F
:1019C0006E028823C9F3DF91CF9108950F931F937F
:1019D000082F162F8BE10E940E0B8BE50E940E0B39
:1019E000812F6AE00E945D0D805D0E940E0B812FA9
:1019F0006AE00E945D0D892F805D0E940E0B8BE3D3
:101A00000E940E0B802F6AE00E945D0D805D0E9497
:101A10000E0B802F6AE00E945D0D892F805D0E9471
:101A20000E0B86E60E940E0B1F910F9108958BE11D
:101A30000E940E0B8BE50E940E0B82E30E940E0BA0
:101A40008AE40E940E0B0895CF93DF93EC0110926D
:101A50006F022AC00E94290B682F80916F026830A4
:101A6000A9F4882309F163E08E5F0E94E60C80E20E
:101A70000E940E0B80916F0263E08E5F0E94E60C65
:101A800080916F02815080936F020EC0E82FF0E0CA
:101A9000E859FD4F6083CE010E94B60C80916F0221
:101AA0008F5F80936F02219680916F02863090F253
:101AB0000E94200BDF91CF910895991B79E004C01B
:101AC000991F961708F0961B881F7A95C9F780957D
:041AD0000895FFCFA7
:101AD400130707030808080808080808080808087E
:101AE400030808080808080808080808080308087C
:101AF4000808080808080808080803080808080867
:101B04000808080808080803080808080808080856
:101B14000808080803080808080808080808080846
:101B2400080308080808080808080808080803083B
:101B34000808080808080808080808030808080826
:101B44000808080808080808030808080808080816
:101B54000808080808030808080808080808080806
:101B64000808030808080808040808080804040802
:101B74000808040404080804040404080208080803
:101B840008080808080808080802080808080808D7
:101B940008080808080802080808080808080808C7
:101BA40008080802080808080808080808080808B7
:101BB40002080808080808080808080808020808AD
:101BC4000808080808080808080802080808080897
:101BD4000808080808080802080808080808080887
:101BE4000808080802080808080808080808080877
:101BF400080208080808080808080808080802086D
:0C1C04000808080808080808080808027A
:00000001FF
