:100000000C94A1040C94BC040C94BC040C94BC048B
:100010000C94BC040C94BC040C94BC040C94F50D1E
:100020000C94BC040C94BC040C94BC040C94BC0450
:100030000C94BC040C94E9080C94BC040C94BC040F
:100040000C94BC040C94BC040C94BC040C94BC0430
:100050000C94BC040C94BC040C94BC040C94BC0420
:100060000C94BC040C94BC040F020E020D030C048F
:100070000B050B050A050A06090709080808070801
:100080000809080A080B050C050D060E070F0810D5
:100090000810091009110A120A130B130C120C1381
:1000A0000D130E130F161016111612161316131326
:1000B00014131412151116111610150F160F160E13
:1000C000160D190C190B1A0B190A1909160816071F
:1000D0001507150614061305130112021103100269
:1000E0000F030E030D040C050B060B080A080A0982
:1000F000090A090B080B070B080C080D080E030F63
:1001000003100411051206130813091309140A1524
:100110000A160B160C150C160D160E160F1B101BBF
:10012000111B121B131B1316141614151514161479
:10013000161315121612161116101B0F1B0E1C0E7D
:100140001B0D1B0C160B160A150A150914091308AA
:1001500013021203110410030F0008030507040C17
:10016000051108150F17161519111A0C1907160382
:100170000F0107050409030F041507190F1D1619B0
:100180001B151C0F1B0918050F050B050808080C8B
:1001900008100B130F1313131610160C1608130563
:1001A0000F060B08080B060F08130B160F18131673
:1001B0001613180F160B1308080800080808000883
:1001C00000080800000008080008000808000800EF
:1001D00008080000000808000800080800000808D7
:1001E00008000800080800000008080800000808C7
:1001F0000008080808000808080800080808080897
:1002000000000808000008080800080008080008A6
:10021000000808000800080800000808080000009E
:100220000808000808080800000008080008080876
:100230000800000008080000000808000808080876
:100240000000000808000808080800080808080856
:10025000000008080008080808000800080800084E
:100260000008080800000808000800080800080046
:100270000808000000080800080008080008000836
:100280000800000008080800080808080008080816
:100290000800080808000000080808080008080806
:1002A00008000808080800080800080008080000FE
:1002B00000080800080008080000080808000008F6
:1002C00008080008000808000800080800080808D6
:1002D00008000808080800080808080008080808B6
:1002E00000000008080008000808000000080800D6
:1002F00008000808000800080800080008080000B6
:1003000000080800080008080008000808000800A5
:100310000808000800080800000008080008000895
:100320000800080008080008000808000000080885
:100330000000000808000800080800000008080085
:100340000808080800080808080000000808000855
:10035000000808000000080800000008080800085D
:100360000808000000080800080008080000080845
:10037000080008000808000800080808000008082D
:10038000000808080808000808080808000808000D
:10039000000808080000000808080008080808000D
:1003A00008080808000808080800080808000800ED
:1003B00008080008000808000800080800080008ED
:1003C00008000000080800080008080008000808E5
:1003D00000080008080008000808080008080800CD
:1003E00008000808000800080800080008080000C5
:1003F00000080800080008080008000808000800B5
:100400000808080008080800080008080008000894
:100410000800080008080008000808080008080884
:100420000800080808080008080800000008080874
:100430000800080808000808080008080808000064
:10044000000808080008080800080008080800005C
:100450000808000800080808000008080008080844
:10046000080008080808000000080800080008083C
:10047000000000080808080808080800000808002C
:100480000808080800080808080800000808080804
:100490000008080808000808000000080800080014
:1004A00008080000080808080808080800000008F4
:1004B00008000000080800080808080000000808F4
:1004C00008000008080008080808000008080800DC
:1004D00008080808000808080800000008080008C4
:1004E00000080800000008080008000808000000D4
:1004F00008080008080808000808080800000008A4
:100500000800080008080008000808080008080893
:10051000080808080808000808080800080808086B
:100520000008080808080808080800080808080063
:100530000808080800080808000008080808080853
:10054000080800080008080000080808000800085B
:10055000080008000808080008080808000808083B
:100560000800080808080008080808000808080823
:10057000080808080008000808000000080800082B
:100580000008080008000808080808080808080803
:100590000808000000080800080008080008000813
:1005A00008080808080808080808080000000808E3
:1005B00000080008080000000808080808080800EB
:1005C00000080808000800080800000808080008DB
:1005D00008080808080808080000000808000800C3
:1005E00008080000000808080800080808080808AB
:1005F000080808080808000000080800080808089B
:100600000008080808080808080800000008080092
:10061000080808080800000808000000080808008A
:100620000808080000000808080008080808000872
:10063000080808000008080808080808080808084A
:100640000800080008080008000808000000080862
:100650000808080808000800080800080008080042
:100660000800080808000808080808080808000822
:10067000000808000800080800000008080008003A
:1006800008080808080808080808080800080008FA
:1006900008080008080800080008080808080808F2
:1006A00000080008080008000808080008080808F2
:1006B00000080808080808080800000008080800E2
:1006C00008080800080808080000000808080800D2
:1006D00008080808080808080008080808080808A2
:1006E00008000808080808000808080008000808AA
:1006F00000080008080008000808080008080808A2
:100700000008080800000808080800080808080091
:100710000808080000000808000000080808080091
:100720000808000000080800080808080000000881
:100730000800000008080808000808000000080871
:100740000808000808000000080800080008080061
:100750000800080800000008080808000808080841
:100760000008080000000808000808080800000049
:100770000808080800080800000008080000000831
:100780000800080808080000000808000800080819
:100790000000000808000000080808080008080811
:1007A00008000808080800080808080008080000F1
:1007B00000080800080008080800080808000800E9
:1007C00008080000000808000000080800080008E9
:1007D00008000000080808080008080808000808C1
:1007E00008080808080000000808080808080800A9
:1007F0000000080808080808080808080808080889
:100800000808080808080808080808080808080868
:100810000800080008000800080008000808000890
:1008200008000800080000080008000820612920CE
:100830004D617271756573696E610A0D20622920C0
:10084000416A757374652064652052656C6F6A0A2D
:100850000D2063292053616C69720020496E747207
:100860006F64757A636120656C20746578746F209D
:1008700028636164656E6120646520382062797444
:1008800065732920792070726573696F6E652065C4
:100890006E746572002050726573696F6E65206CAE
:1008A00061207465636C6120656E7465722070618F
:1008B000726120636F6E6669677572617220656C24
:1008C0002072656C6F6A206F2065736361706520AC
:1008D0007061726120726567726573617220616C0C
:1008E000206D656E75207072696E636970616C0051
:1008F00020436F6E66696775726520656E20626160
:10090000736520616C20666F726D61746F20646521
:10091000203234206872732C20656E206361736FFF
:1009200020646520756E2076616C6F7220696E762A
:10093000616C69646F2065737465207365726120F2
:10094000300011241FBECFEFCDBF11E0A0E0B1E019
:10095000EAEAF1E202C005900D92A630B107D9F79C
:1009600015E0A6E0B1E001C01D92AB33B107E1F79D
:100970000E9418060C94D4100C94000083B190E0EF
:100980008095909581709070089583B190E024E0F7
:10099000969587952A95E1F780959095817090704E
:1009A000089583B190E035E0969587953A95E1F703
:1009B00080959095817090700895813021F08230FB
:1009C00009F020C1D9C026E049E465E089E00E9431
:1009D000560A25E049E469E086E00E94560A25E0CF
:1009E00049E469E088E00E94560A27E049E46EE0A5
:1009F00088E00E94560A27E049E46EE086E00E9403
:100A0000560A27E049E46EE084E00E94560A6091AD
:100A1000030180910401680F6B5025E049E488E0F0
:100A20000E94560A6091030180910401680F6B5087
:100A300025E046E586E00E94560A60910301809118
:100A40000401680F675026E046E58AE00E94560AD6
:100A50006091030180910401680F635027E046E52F
:100A600081E10E94560A6091030180910401680FA0
:100A7000635027E049E48EE00E94560A609103012A
:100A800080910401680F675026E046E588E10E94E6
:100A9000560A6091030180910401680F675026E0B7
:100AA00049E485E10E94560A6091030180910401A6
:100AB000680F675026E049E483E10E94560A60917E
:100AC000030180910401680F6B5025E046E58BE13E
:100AD0000E94560A6091030180910401680F6B50D7
:100AE00025E049E488E10E94560A60910301809163
:100AF0000401680F6B5025E049E486E10E94560A24
:100B00006091030180910401680F6B5025E049E476
:100B100084E10E94560A27E049E46EE08CE10E94DD
:100B2000560A27E048E56EE089E10E94560A25E072
:100B300048E569E08AE10E94560A26E048E565E05A
:100B400087E10E94560A26E049E465E084E10E94BC
:100B5000560A27E048E562E082E10E94560A27E053
:100B600049E462E08FE00E94560A27E049E462E02F
:100B70008DE00E94560A089527E048E569E087E184
:100B80000E94560A27E049E469E08AE10E94560A79
:100B900027E048E561E082E10E94560A27E049E447
:100BA00061E08FE00E94560A27E049E461E08DE0B1
:100BB0000E94560A27E049E469E08AE00E94560A4A
:100BC00027E049E469E088E00E94560A27E049E40A
:100BD00069E086E00E94560A60910101809102015D
:100BE000680F635027E046E582E10E94560A609153
:100BF000010180910201680F635027E049E48FE012
:100C00000E94560A08950F931F93082F162F2A9AB1
:100C100047E00E94B2092A980E940F0D2A9A48E0E4
:100C2000612F802F0E94B2092A981F910F91089579
:100C3000CF92DF92EF92FF920F93CF93DF93CDB7D6
:100C4000DEB723970FB6F894DEBF0FBECDBF0E946C
:100C50001F0F0E94D80D83E30E94340D15C00E941F
:100C6000ED0D882389F0809114018F5F809314012A
:100C70000E940F0D0E94760D882331F085E080934D
:100C8000140181E08093150180911401853038F3BF
:100C90000E946C0F80911501813019F40E941D1083
:100CA00005C040E060E080E00E941F0E0E94BD0E83
:100CB00069837A838B83ACE2B5E0FE01319683E0F1
:100CC00001900D928150E1F70E94C50885E19FE0F7
:100CD00090930F0180930E0181E0809316011BC059
:100CE0000091110180910E0190910F010E94180F47
:100CF000E02FF0E0EA5FFE4F8083809111018F5F6B
:100D00008093110180910E0190910F0101969093B3
:100D10000F0180930E0180911101883008F34CE29D
:100D2000E42E45E0F42E6E010894C11CD11C809184
:100D30001701882321F0813009F04FC034C0189981
:100D400023C0809116018F5F809316018091160158
:100D5000823039F0833051F0813089F40E944F099C
:100D600013C00E944F09109212010EC00E944F0939
:100D700010922F051092290510922A0505C00E9495
:100D80004F0981E0809316011C9927C080911301BF
:100D9000813019F41092130103C081E08093130194
:100DA0000E944F091AC018990BC040912E056091FE
:100DB0002D0580912C058F5F0E941F0E0E94480E0A
:100DC0001C990BC040912E0560912D056F5F80919D
:100DD0002C050E941F0E0E94480E1D990AC080918A
:100DE0001701813019F41092170103C081E080933C
:100DF000170180911601813021F0823009F0EAC09C
:100E000065C080911301813081F40E94DD0420913E
:100E1000040130E06091030170E08091000141E045
:100E200050E090E00E94FB0B22C0109210011BC00A
:100E3000E0911001F0E0EE0FFF1FEF58FE4F3491EC
:100E40008091100190E0880F991F80599E4FFC01FE
:100E5000849121E041E0632F0E94B50B8091100145
:100E60008F5F80931001809110018C3008F3E09126
:100E70002D054E2F50E0440F551FCA018F519F4F33
:100E8000FC01249140525F4FFA018491609103016B
:100E900002E0482F809100010E944B0BE0912C054D
:100EA0004E2F50E0440F551FCA018F559E4FFC0135
:100EB000249140565E4FFA0184916091030104E051
:100EC000482F809100010E94800B84C08091130103
:100ED000813089F482E00E94DD042091020130E03B
:100EE0006091010170E08091000141E050E090E0EC
:100EF0000E94FB0B22C0109210011BC0E091100158
:100F0000F0E0EE0FFF1FE75AFE4F34918091100181
:100F100090E0880F991F885A9E4FFC01849121E030
:100F200041E0632F0E94B50B809110018F5F809389
:100F30001001809110018C3008F3E0912D054E2FA7
:100F400050E0440F551FCA0187599F4FFC0124915F
:100F500048595F4FFA0184916091010102E0482FE6
:100F6000809100010E944B0BE0912C054E2F50E028
:100F7000440F551FCA0187579E4FFC0124914857C3
:100F80005E4FFA0184916091010104E0482F809145
:100F900000010E94800B1092110118C0E091110114
:100FA000F0E0EA5FFE4F408150E0809112019091A5
:100FB0001101805E990F990F26E069E1891B0E945B
:100FC000C509809111018F5F8093110180911101FA
:100FD000883020F30E94ED0D882309F4A8CE80917B
:100FE000160190910001813019F46091030102C053
:100FF00060910101892F0E9403060E94260E6AE07B
:1010000086E00E943B0F0E94DD0E0E94BD0E6983A8
:101010007A838B83D701F60183E001900D92815092
:10102000E1F7809112018F5F80931201809112018C
:10103000803221F40E9481091092120180911601E0
:10104000833009F074CE90912F059F5F90932F0508
:10105000809129058F5F8093290580912A05882337
:1010600009F59F31F8F41092110118C0E0911101B7
:10107000F0E0EA5FFE4F408150E0909111018091D5
:101080002F05815E990F990F26E06AE0891B0E9467
:10109000C509809111018F5F809311018091110129
:1010A000883020F380912F058E3129F481E08093E0
:1010B0002B050E944F09809129058C3339F48091CA
:1010C0002A058F5F80932A051092290580912A05B1
:1010D000853008F04CC080912F058E3108F447C050
:1010E00080912B05813009F042C02091020130E04F
:1010F0006091010170E08091000141E050E090E0DA
:101100000E94FB0B80911301813019F482E00E9450
:10111000DD04E0912D054E2F50E0440F551FCA010C
:1011200087599F4FFC01249148595F4FFA018491E0
:101130006091010102E0482F809100010E944B0B59
:10114000E0912C054E2F50E0440F551FCA018757E0
:101150009E4FFC01249148575E4FFA0184916091A3
:10116000010104E0482F809100010E94800B8091D2
:101170002A05853008F4DBCD10922A0510922B0544
:1011800010922F050E944F09D2CDE0E8F0E0808157
:1011900082608083E1E8F0E080818961808384E679
:1011A00090E09093870080938600EFE6F0E08081E6
:1011B000816080837894089580911801882319F4C0
:1011C00080E090E00895109218012B9A81E090E061
:1011D00008951F920F920FB60F9211242F933F93F1
:1011E0004F935F936F937F938F939F93AF93BF932F
:1011F000EF93FF930E94D20C86B386BBFF91EF91D1
:10120000BF91AF919F918F917F916F915F914F911E
:101210003F912F910F900FBE0F901F901895843023
:10122000F9F0853038F4823089F08330A0F48130D1
:1012300079F507C0863001F18630C0F0873041F57E
:1012400020C05A9A5B985C985D9A26C05A985B9A1F
:101250005C985D9809C05A985B985C9A5D980AC042
:101260005A9A5B9A5C985D9A5E9A17C05A9A5B98F4
:101270005C9A5D9A5E980AC05A985B9A5C9A5D98EF
:1012800004C05A9A5B9A5C9A5D9A5E9A5F9A089536
:101290005A985B985C985D985E985F98089589E18C
:1012A00091E0909331058093300510921B0524C086
:1012B00010921C0518C080911B05E0911C05F0E000
:1012C00095E0EE0FFF1F9A95E1F7E80FF11D809171
:1012D000300590913105E80FF91F108280911C05AF
:1012E0008F5F80931C0580911C05803220F38091D4
:1012F0001B058F5F80931B0580911B058032C0F218
:10130000089589E191E09093310580933005109222
:101310001B0523C089E116C080911B05E0911C05C7
:10132000F0E025E0EE0FFF1F2A95E1F7E80FF11D31
:101330008091300590913105E80FF91F108280915E
:101340001C058F5F80931C0580911C05803220F363
:1013500080911B058F5F80931B0580911B05803258
:10136000C8F20895E62F29E131E03093310520934A
:101370003005F0E055E0EE0FFF1F5A95E1F7E80F5A
:10138000F11DE20FF31F408308958F929F92AF9259
:10139000BF92CF92DF92EF92FF920F931F93CF9362
:1013A000DF93CDB7DEB721970FB6F894DEBF0FBE3F
:1013B000CDBFA82EB62EC22ECA01815490404A97A6
:1013C00018F020E431E009C09A01220F331F220FE8
:1013D000331F240F351F25543140CA0181569040D8
:1013E0004A9748F49A01220F331F220F331F240F0C
:1013F000351F23563140CA014E970A9748F49A0187
:10140000220F331F220F331F240F351F2C523F4F43
:10141000CA018F970B9748F49A01220F331F220FAE
:10142000331F240F351F275E3F4F4901880C991C3D
:10143000880C991C820E931E28EB31E0820E931EBD
:1014400090E01BC02A98F70144914C0D6D2D8A2D18
:10145000801B99830E94B2092A9A0F5F1F4F08943C
:10146000E11CF11C99810530110561F79F5F25E0B2
:1014700030E0820E931E953031F0740100E010E0F0
:10148000D92EDB0CDFCF21960FB6F894DEBF0FBE4E
:10149000CDBFDF91CF911F910F91FF90EF90DF9023
:1014A000CF90BF90AF909F908F9008958F929F9212
:1014B000AF92BF92CF92DF92EF92FF920F931F9362
:1014C000CF93DF93CDB7DEB721970FB6F894DEBF89
:1014D0000FBECDBFA82EB62EC22E493441F04635E0
:1014E00019F486E090E005C080E090E002C083E05F
:1014F00090E04C01880C991C880E991E21E138E07F
:10150000820E931E90E01BC02A98F70144914C0D67
:101510006D2D8A2D801B99830E94B2092A9A0F5F34
:101520001F4F0894E11CF11C99810330110561F7EC
:101530009F5F23E030E0820E931E933031F0740100
:1015400000E010E0D92EDB0CDFCF21960FB6F89427
:10155000DEBF0FBECDBFDF91CF911F910F91FF90E6
:10156000EF90DF90CF90BF90AF909F908F900895B5
:10157000DC01FB01208131818D919C911197918338
:1015800080832D933C9308953F924F925F926F9288
:101590007F928F929F92AF92BF92CF92DF92EF9203
:1015A000FF920F931F93CF93DF93FC01EB016A012E
:1015B000302EA901461B570B57FF03C0509541958C
:1015C0005F4FC6018E1B9F0B97FF03C090958195BF
:1015D0009F4F8417950754F4CE01EF01FC01C90118
:1015E00096016C0101E0402E512C02C04424552488
:1015F000CE16DF0634F4C6016F01FC01C9019E015D
:10160000EC0146018E1A9F0A5901AC1ABD0AB7FEB9
:1016100004C0B094A194B108B394C217D30724F4C2
:1016200011E0612E712C03C066246A94762CC401EB
:1016300062E070E00E94AD107B018F0117C081E075
:101640004816510421F4432D602F8C2F03C0432DE5
:101650006C2F802F0E94B209EA18FB08F7FE04C025
:10166000C60DD71DE80CF91C0F5F1F4FC016D10621
:1016700034F7DF91CF911F910F91FF90EF90DF90A2
:10168000CF90BF90AF909F908F907F906F905F9022
:101690004F903F900895CF92DF92EF92FF920F9379
:1016A0001F93F82E162FE42ED22EC02E80911905EE
:1016B000882381F080911A05882361F020911A0512
:1016C00030E04091190550E070E000E08F2D90E08F
:1016D0000E94C40A2D2D30E04E2D50E0612F70E0A5
:1016E0000C2D8F2D90E00E94C40AE0921905D09233
:1016F0001A051F910F91FF90EF90DF90CF90089502
:10170000CF92DF92EF92FF920F931F93F82E162F36
:10171000E42ED22EC02E80911F05882381F0809167
:101720002005882361F02091200530E040911F05BD
:1017300050E070E000E08F2D90E00E94C40A2D2D53
:1017400030E04E2D50E0612F70E00C2D8F2D90E099
:101750000E94C40AE0921F05D09220051F910F91AC
:10176000FF90EF90DF90CF9008956F927F928F92CD
:101770009F92AF92BF92CF92DF92EF92FF920F9320
:101780001F93C62EE22EDD24882E9924FF243401D7
:101790006E187F08042F9601A301B601C4010E94B0
:1017A000C40A5701AC0CBD1C9501A401B601C401CB
:1017B0000E94C40A9501A301B601C3010E94C40A94
:1017C000E80CF91C9501A701B601C7010E94C40AE3
:1017D0009501A301B501C4010E94C40A1F910F9194
:1017E000FF90EF90DF90CF90BF90AF909F908F9041
:1017F0007F906F9008952F923F924F925F926F92D9
:101800007F928F929F92AF92BF92CF92DF92EF9290
:10181000FF920F931F93CF93DF93CDB7DEB724973B
:101820000FB6F894DEBF0FBECDBF7C016B018A01FD
:1018300051E0852E912C821A930AC901880F991FB5
:1018400066247724681A790A3C832B832A98A02E71
:10185000462EBB805E2C6B2D6C0D402F8E2D0E9472
:10186000B2092A9A2A986C2D6B19402F8E2D0E944E
:10187000B2092A9A2A98402F6C2D8B2D8E0D0E942A
:10188000B2092A9A2A98402F6C2D8E2D8B190E940E
:10189000B2092A9A81E090E09A8389832224332432
:1018A00062C097FC0BC0EB81FC813197FC83EB831A
:1018B00082E090E0680E791E860C971C0894211C2B
:1018C000311CE981FA813296FA83E9838E0E9F1EDC
:1018D0002A980B81102F140DD22CD50C4A2D612F74
:1018E0008D2D0E94B2092A9A2A98E52CE2184A2DD9
:1018F000612F8E2D0E94B2092A9A2A98142D101B4E
:101900004A2D612F8D2D0E94B2092A9A2A984A2DBC
:10191000612F8E2D0E94B2092A9A2A98122D140D39
:10192000E02EE50C4A2D612F8E2D0E94B2092A9AD5
:101930002A98F52DF01B0F2F4A2D612F8F2F0E9413
:10194000B2092A9A2A98142D12194A2D612F8E2D28
:101950000E94B2092A9A2A984A2D612F802F0E944C
:10196000B2092A9A2A988B819C81281639060CF490
:1019700098CF24960FB6F894DEBF0FBECDBFDF918F
:10198000CF911F910F91FF90EF90DF90CF90BF907C
:10199000AF909F908F907F906F905F904F903F900F
:1019A0002F90089580911D0588B92A9A299A10923E
:1019B0001E0523C0E0911D0580911E05F0E065E045
:1019C000EE0FFF1F6A95E1F7E81BF109E75EFE4F96
:1019D000878D0E940F0980911D05803120F45D984C
:1019E0005E985F9803C05A985B985C982B9A2B98E6
:1019F00080911E058F5F80931E0580911E058032A9
:101A0000C8F280911D058F5F80931D0580911D0593
:101A1000803211F410921D052A9829980895CF93C9
:101A2000DF93CDB7DEB722970FB6F894DEBF0FBEB7
:101A3000CDBF88E289838EE08A830000000089811F
:101A40008150898389818823C1F78A8181508A8363
:101A50008A81882391F722960FB6F894DEBF0FBED5
:101A6000CDBFDF91CF9108950F931F932F933F9395
:101A70004F935F9350E046E038E120E23093C1009D
:101A80004093C200082F10E01093C5000093C400DB
:101A90002093C0005F914F913F912F911F910F9123
:101AA00008955F936F938F935091C00055FFFCCFC3
:101AB0008093C60061E060FB55F95093C0008F91A0
:101AC0006F915F9108955F935091C00057FFFCCFD5
:101AD0008091C6005F9108955F935091C00057FFB9
:101AE000FCCF8091C600DDDF5F9108958091C60034
:101AF00008954F938F9340E089918093C60084139B
:101B0000FBCF8F914F9108958F939F932F931F93A6
:101B10000F9300E317E3982F807F8295282F2A5F89
:101B200024FF800F24FD810FBCDF9F70892F282F99
:101B30002A5F24FF800F24FD810FB3DF0F911F91D7
:101B40002F919F918F9108958F939F934F93482F3B
:101B5000892FDADF842FD8DF4F919F918F910895DD
:101B6000329B81E080E008950F931F9300E317E319
:101B70008A3010F0810F01C0800F1F910F910895DE
:101B8000E0E7F0E0108290E29093B60022E020932C
:101B9000B00097E09093B1001092B20097BB82958D
:101BA000880F807E81508093B300208378940895BD
:101BB000E0E7F0E0108280E28093B60092E090933C
:101BC000B00087E08093B1001092B20087BB8DE730
:101BD0008093B300908378940895809122058823A0
:101BE00011F01092220590E008951F920F920FB607
:101BF0000F9211248F93809121058F5F809321058F
:101C0000809121058D3728F01092210581E0809385
:101C100022058F910F900FBE0F901F901895E1E64F
:101C2000F0E090E8908382E08083000000000000F4
:101C300000000000908380830000000008958093DE
:101C4000230560932405409325050895809125057B
:101C50008F5F80932505809125058C33C0F010920D
:101C60002505809124058F5F8093240580912405AC
:101C70008C3368F010922405809123058F5F809348
:101C80002305809123058C3010F0109223050895D0
:101C9000809124058C3368F01092240580912305EF
:101CA0008F5F80932305809123058C3010F0109274
:101CB0002305809123058C3010F0109223050895A0
:101CC00080932605809126056AE00E94A1108093EA
:101CD0002705809127058A30B8F4809126050E9457
:101CE000A110909328058091270590E024E0880FAB
:101CF000991F2A95E1F780932705909127058091F8
:101D00002805890F809326058091260590E0089587
:101D1000CF92DF92EF92FF920F931F93CF93DF93B7
:101D2000CDB7DEB723970FB6F894DEBF0FBECDBF99
:101D3000EE24FF248701809123050E94600EC82EA7
:101D4000809124050E94600ED82E809125050E9466
:101D5000600EEC2CFD2C082FC801B70123960FB69E
:101D6000F894DEBF0FBECDBFDF91CF911F910F91D1
:101D7000FF90EF90DF90CF900895CF93DF93CDB792
:101D8000DEB723970FB6F894DEBF0FBECDBF60E07D
:101D900070E080E090E0209123053091240540918F
:101DA0002505622F732F842F23960FB6F894DEBF7C
:101DB0000FBECDBFDF91CF910895CF93DF93CDB705
:101DC000DEB726970FB6F894DEBF0FBECDBF0E94D8
:101DD000880E6C837D838E83DE011196FE0134961E
:101DE00083E001900D928150E1F789810E94840D7A
:101DF0008AE30E94510D8A810E94840D8AE30E9429
:101E0000510D8B810E94840D26960FB6F894DEBF8B
:101E10000FBECDBFDF91CF910895FD98FC98FB9840
:101E20000895F999FECF81BD60BDFA9AF99A089597
:101E3000F999FECF81BDF89A80B590E008958EE0C3
:101E400084B98AE085B98FE087B918B88CEF8AB970
:101E50001BB80895CF93DF93EC0105C02196F901DB
:101E600084910E94510D9E01FE0184918823B1F757
:101E7000DF91CF9108950F931F93082F162F8BE1B9
:101E80000E94510D8BE50E94510D812F6AE00E9446
:101E9000A110805D0E94510D812F6AE00E94A11067
:101EA000892F805D0E94510D8BE30E94510D802F80
:101EB0006AE00E94A110805D0E94510D802F6AE0AF
:101EC0000E94A110892F805D0E94510D86E60E941C
:101ED000510D1F910F9108958BE10E94510D8BE5DB
:101EE0000E94510D82E30E94510D8AE40E94510D1F
:101EF0000895FF920F931F930E946C0DF82E81E3BB
:101F00008F1510F490E3F92E0E946C0D082F81E3D9
:101F1000F81629F4023318F080E3F82E00E38AE380
:101F20000E94510D0E946C0D182F863308F010E3AB
:101F30000E946C0D8051EAE01E9F90011124820FD7
:101F40000051FE9EF001112440E0682F802F8E0F7B
:101F50000E941F0E0E94260E1F910F91FF90089560
:101F6000EF92FF921F93CF93DF937C0110923A057B
:101F700047C00E946C0D182F8830A9F480913A0553
:101F80008823F1F163E08E5F0E943B0F80E20E94A4
:101F9000510D80913A0563E08E5F0E943B0F809166
:101FA0003A0581502BC0E0913A05E7012196803235
:101FB00069F1F0E0EE5CFA4F8083682FC7010E9460
:101FC000110F90913A059F5F90933A057E011D3065
:101FD000B9F488E0891B0BC0F0E0EE5CFA4F108288
:101FE00060E0CE010E94110F809138058F5F8093D1
:101FF0003805E0913805E83078F388E080933A05B9
:1020000080913A05883008F4B4CF0FC0F0E0EE5C60
:10201000FA4F108260E0C7010E94110F80913A05CB
:102020008F5F80933A057E01EBCF0E94630DDF91B5
:10203000CF911F91FF90EF900895CF92DF92EF9292
:10204000FF920F931F93CF93DF93109239059CE279
:10205000C92E98E0D92EC5E9D8E080EFE82E88E0B7
:10206000F82E0BE518E05FC00E946C0F61E081E084
:102070000E943B0FC6010E942A0F0E94630D823608
:10208000A1F0833609F447C0813609F04AC00E94A6
:102090006C0FC8010E942A0F6AE086E00E943B0F85
:1020A00085E19FE00E94B00F3CC00E946C0F61E090
:1020B00081E00E943B0FCE010E942A0F0E94ED0D8D
:1020C000882341F066E086E00E943B0F0E94260EC6
:1020D0000E94DD0E0E94760D8D30C1F40E946C0FBF
:1020E00061E081E00E943B0FC7010E942A0F66E079
:1020F00086E00E943B0F0E94790F0E946C0F61E006
:1021000081E00E943B0FCE010E942A0F0E94760DB3
:102110008B31A1F606C081E0809339050E946C0FD7
:1021200002C01092390580913905882309F49CCFAB
:10213000DF91CF911F910F91FF90EF90DF90CF90A3
:102140000895991B79E004C0991F961708F0961B13
:10215000881F7A95C9F78095089597FB092E072661
:102160000AD077FD04D00CD006D000201AF4709568
:1021700061957F4F0895F6F7909581959F4F08954B
:10218000AA1BBB1B51E107C0AA1FBB1FA617B7079D
:1021900010F0A61BB70B881F991F5A95A9F78095B9
:0A21A0009095BC01CD010895FFCF1A
:0621AA000F0C0C0F0E00EB
:00000001FF
