:100000000C9460030C947B030C947B030C947B0393
:100010000C947B030C947B030C947B030C94C80816
:100020000C947B030C947B030C947B030C947B0358
:100030000C947B030C947C040C947B030C947B0346
:100040000C947B030C947B030C947B030C947B0338
:100050000C947B030C947B030C947B030C947B0328
:100060000C947B030C947B03080800080808000824
:100070000008080000000808000800080800080040
:100080000808000000080800080008080000080828
:100090000800080008080000000808080000080818
:1000A00000080808080008080808000808080808E8
:1000B00000000808000008080800080008080008F8
:1000C00000080800080008080000080808000000F0
:1000D00008080008080808000000080800080808C8
:1000E00008000000080800000008080008080808C8
:1000F00000000008080008080808000808080808A8
:1001000000000808000808080800080000080008A7
:100110000800080800080008000800080800080097
:100120000808000000080800080008080008000887
:100130000800000008080800080808080008080867
:100140000800080808000000080808080008080857
:10015000080008080808000808000800080800004F
:100160000008080008000808000008080800000847
:100170000808000800080800080008080008080827
:100180000800080808080008080808000808080807
:100190000000000808000800080800000008080027
:1001A0000800080800080008080008000808000007
:1001B00000080800080008080008000808000800F7
:1001C00008080008000808000000080800080008E7
:1001D00008000800080800080008080000000808D7
:1001E00000000008080008000808000000080800D7
:1001F00008080808000808080800000008080008A7
:1002000000080800000008080000000808080008AE
:100210000808000000080800080008080000080896
:10022000080008000808000800080808000008087E
:10023000000808080808000808080808000808005E
:10024000000808080000000808080008080808005E
:10025000080808080008080808000808080008003E
:10026000080800080008080008000808000800083E
:100270000800000008080008000808000800080836
:10028000000800080800080008080800080808001E
:100290000800080800080008080008000808000016
:1002A0000008080008000808000800080800080006
:1002B00008080800080808000800080800080008E6
:1002C00008000800080800080008080800080808D6
:1002D00008000808080800080808000000080808C6
:1002E00008000808080008080800080808080000B6
:1002F00000080808000808080008000808080000AE
:100300000808000800080808000008080008080895
:10031000080008080808000000080800080008088D
:10032000000000080808080808080800000808007D
:100330000808080800080808080800000808080855
:100340000008080808000808000000080800080065
:100350000808000008080808080808080000000845
:100360000800000008080008080808000000080845
:10037000080000080800080808080000080808002D
:100380000808080800080808080000000808000815
:100390000008080000000808000800080800000025
:1003A00008080008080808000808080800000008F5
:1003B00008000800080800080008080800080808E5
:1003C00008080808080800080808080008080808BD
:1003D00000080808080808080808000808080800B5
:1003E00008080808000808080000080808080808A5
:1003F00008080008000808000008080800080008AD
:10040000080008000808080008080808000808088C
:100410000800080808080008080808000808080874
:10042000080808080008000808000000080800087C
:100430000008080008000808080808080808080854
:100440000808000000080800080008080008000864
:100450000808080808080808080808000000080834
:10046000000800080800000008080808080808003C
:10047000000808080008000808000008080800082C
:100480000808080808080808000000080800080014
:1004900008080000000808080800080808080808FC
:1004A00008080808080800000008080008080808EC
:1004B00000080808080808080808000000080800E4
:1004C00008080808080000080800000008080800DC
:1004D00008080800000008080800080808080008C4
:1004E000080808000008080808080808080808089C
:1004F00008000800080800080008080000000808B4
:100500000808080808000800080800080008080093
:100510000800080808000808080808080808000873
:10052000000808000800080800000008080008008B
:10053000080808080808080808080808000800084B
:100540000808000808080008000808080808080843
:100550000008000808000800080808000808080843
:100560000008080808080808080000000808080033
:100570000808080008080808000000080808000823
:10058000080800080008080008000808000800081B
:1005900008080008080808000808080000080808FB
:1005A00008000808080800080808000000080800FB
:1005B00000000808080800080800000008080008F3
:1005C00008080800000008080000000808080800E3
:1005D00008080000000808080800080800000008D3
:1005E00008000800080800080008080000000808C3
:1005F00008080008080808000808000000080800AB
:10060000080808080000000808080800080800009A
:10061000000808000000080800080808080000009A
:10062000080800080008080000000808000000088A
:100630000808080008080808000808080800080852
:10064000080800080800000008080008000808085A
:10065000000808080008000808000000080800005A
:100660000008080008000808000000080808080042
:10067000080808080008080808080808000000081A
:1006800008080808080800000008080808080820EA
:10069000496E74726F64757A636120656C20446979
:1006A000722E204E6F646F2028627974652920793C
:1006B0002070726573696F6E6520656E7465720077
:1006C00011241FBECFEFCDBF12E0A0E0B1E0EEE4F9
:1006D000F5E102C005900D92A435B107D9F716E0F7
:1006E000A4E5B2E001C01D92A137B107E1F70E9475
:1006F000A8030C94A60A0C940000982F5A985B98B3
:100700005C985D985E985F981092580207C02B988D
:100710002B9A809158028F5F8093580280915802E3
:100720008917A8F308950F931F93082F162F2A9A5D
:1007300047E00E94E2042A980E94E2072A9A48E0D1
:10074000612F802F0E94E2042A981F910F91089533
:100750000F938EE084B98AE085B98FE087B918B825
:100760008CEF8AB91BB881E00E9407088CE0809367
:10077000560283E0809357020E94AB080E945804FF
:100780002091020130E06091010170E08091000150
:1007900041E050E090E00E94C60680915902882313
:1007A000E9F48091540290915502892BB9F4E091BB
:1007B0005902F0E0EE0FFF1FED5FFE4F2181E09147
:1007C0005902F0E0EE0FFF1FED5FFE4F4081609198
:1007D000010102E0809100010E940E06609101017A
:1007E00070E08091000190E0049604E09B01AC0170
:1007F00003970E9488050E94C008882309F450C00E
:1008000060910101809100010E9493030E94F90808
:1008100080915402909155020196909355028093D5
:100820005402809158028F5F809358028091540245
:1008300090915502CC9711F5809159028F5F80936A
:100840005902E0915902F0E0EE0FFF1FED5FFE4FFD
:100850002181E0915902F0E0EE0FFF1FED5FFE4FA6
:1008600040816091010102E0809100010E940E062A
:1008700081E090E090935502809354028091580259
:10088000883019F481E080935802809159028C30AD
:1008900039F4809156028F5F80935602109259026C
:1008A000809157028C3009F06BCF1092570268CFBD
:1008B000E0E8F0E0808182608083E1E8F0E0808120
:1008C0008961808384E690E090938700809386001E
:1008D000EFE6F0E0808181608083789408958091D4
:1008E0005A02882319F480E090E0089510925A0289
:1008F0002B9A81E090E008951F920F920FB60F920D
:1009000011242F933F934F935F936F937F938F9314
:100910009F93AF93BF93EF93FF930E949D0786B37E
:1009200086BBFF91EF91BF91AF919F918F917F9186
:100930006F915F914F913F912F910F900FBE0F904C
:100940001F9018958430F9F0853038F4823089F0A2
:100950008330A0F4813079F507C0863001F186300C
:10096000C0F0873041F520C05A9A5B985C985D9A38
:1009700026C05A985B9A5C985D9809C05A985B9813
:100980005C9A5D980AC05A9A5B9A5C985D9A5E9AE6
:1009900017C05A9A5B985C9A5D9A5E980AC05A98FA
:1009A0005B9A5C9A5D9804C05A9A5B9A5C9A5D9ACD
:1009B0005E9A5F9A08955A985B985C985D985E98E5
:1009C0005F980895E62F2BE532E030936806209378
:1009D0006706F0E095E0EE0FFF1F9A95E1F7E80F4C
:1009E000F11DE20FF31F408308958F929F92AF9203
:1009F000BF92CF92DF92EF92FF920F931F93CF930C
:100A0000DF93CDB7DEB721970FB6F894DEBF0FBEE8
:100A1000CDBFA82EB62EC02E222351F4CA01880FB6
:100A2000991F880F991F480F591F4554514023C0E3
:100A3000213051F4CA01880F991F880F991F480F60
:100A4000591F4356514017C0223051F4CA01880F34
:100A5000991F880F991F480F591F4C5F5E4F0BC09D
:100A6000233049F4CA01880F991F880F991F480F36
:100A7000591F4C5E5F4F4A01880C991C880C991CC9
:100A8000840E951E28E630E0820E931E90E01BC077
:100A90002A98F70144914C0D6D2D8A2D801B998366
:100AA0000E94E2042A9A0F5F1F4F0894E11CF11C78
:100AB00099810530110561F79F5F25E030E0820ED6
:100AC000931E953031F0740100E010E0D92EDB0C5C
:100AD000DFCF21960FB6F894DEBF0FBECDBFDF91FA
:100AE000CF911F910F91FF90EF90DF90CF90BF902B
:100AF000AF909F908F900895DC01FB0120813181A0
:100B00008D919C911197918380832D933C930895AF
:100B10003F924F925F926F927F928F929F92AF928D
:100B2000BF92CF92DF92EF92FF920F931F93CF93DA
:100B3000DF93EC01FB016A01302EA901461B570B24
:100B400057FF03C0509541955F4FC6018C1B9D0B0D
:100B500097FF03C0909581959F4F8417950754F494
:100B6000CF01FE01EC01C90196016C01B1E04B2EF1
:100B7000512C02C044245524CC16DD0634F4C601A1
:100B80006E01EC01C9019F01FC0146018C1A9D0A0E
:100B90005901AE1ABF0AB7FE04C0B094A194B108BF
:100BA000B394E217F30724F4A1E06A2E712C03C07A
:100BB00066246A94762CC40162E070E00E947F0A89
:100BC0008B017F0116C081E04816510421F4432DAA
:100BD0006C2F8E2D03C0432D6E2D8C2F0E94E204AE
:100BE0000A191B0917FF04C0E60CF71C080D191D94
:100BF0002196CC16DD063CF7DF91CF911F910F9126
:100C0000FF90EF90DF90CF90BF90AF909F908F902C
:100C10007F906F905F904F903F900895CF92DF92BA
:100C2000EF92FF920F931F93F82E162FE42ED22EE1
:100C3000C02E80915C06882381F080915D06882318
:100C400061F020915D0630E040915C0650E070E07C
:100C500000E08F2D90E00E9488052D2D30E04E2D74
:100C600050E0612F70E00C2D8F2D90E00E948805E0
:100C7000E0925C06D0925D061F910F91FF90EF907D
:100C8000DF90CF900895EF92FF920F931F93E82E7D
:100C9000162FF42E022F603120F45D985E985F9835
:100CA00003C05A985B985C9810925B060EC02A9815
:100CB00080915B064F2D612F8E0D0E94E2042A9ACF
:100CC00080915B068F5F80935B0680915B06801747
:100CD00070F31F910F91FF90EF900895EF92FF92A4
:100CE0000F931F93E82E162FF42E022F603120F45D
:100CF0005D985E985F9803C05A985B985C981092D4
:100D00005B060EC02A9860915B06610F4F2D8E2DF9
:100D10000E94E2042A9A80915B068F5F80935B06B3
:100D200080915B06801770F31F910F91FF90EF90F9
:100D30000895EF92FF920F931F93082FE62EF42E43
:100D4000122F2A980E9443062A9A2A986E2D6150E3
:100D5000610F212F4F2D802F0E9443062A9A2A9837
:100D6000212F4F2D6E2D802F0E946E062A9A2A98D1
:100D70000150212F4F2D6E2D802F810F0E946E0666
:100D80002A9A1F910F91FF90EF9008952F923F9212
:100D90004F925F926F927F928F929F92AF92BF928B
:100DA000CF92DF92EF92FF920F931F93CF93DF9337
:100DB000CDB7DEB724970FB6F894DEBF0FBECDBF18
:100DC0007C016B018A0181E0882E912C821A930AA2
:100DD000C901880F991F66247724681A790A3C8311
:100DE0002B832A98A02E462EBB805E2C6B2D6C0D7B
:100DF000402F8E2D0E94E2042A9A2A986C2D6B199E
:100E0000402F8E2D0E94E2042A9A2A98402F6C2DA2
:100E10008B2D8E0D0E94E2042A9A2A98402F6C2D69
:100E20008E2D8B190E94E2042A9A81E090E09A8329
:100E300089832224332462C097FC0BC0EB81FC81A0
:100E40003197FC83EB8382E090E0680E791E860C7C
:100E5000971C0894211C311CE981FA813296FA838F
:100E6000E9838E0E9F1E2A980B81102F140DD22C11
:100E7000D50C4A2D612F8D2D0E94E2042A9A2A98C2
:100E8000E52CE2184A2D612F8E2D0E94E2042A9A49
:100E90002A98142D101B4A2D612F8D2D0E94E204DB
:100EA0002A9A2A984A2D612F8E2D0E94E2042A9AAE
:100EB0002A98122D140DE02EE50C4A2D612F8E2D4F
:100EC0000E94E2042A9A2A98F52DF01B0F2F4A2D32
:100ED000612F8F2F0E94E2042A9A2A98142D12194A
:100EE0004A2D612F8E2D0E94E2042A9A2A984A2DBB
:100EF000612F802F0E94E2042A9A2A988B819C817C
:100F0000281639060CF498CF24960FB6F894DEBF55
:100F10000FBECDBFDF91CF911F910F91FF90EF904A
:100F2000DF90CF90BF90AF909F908F907F906F9009
:100F30005F904F903F902F90089580915B0688B905
:100F40002A9A299A10925E0623C0E0915B0680914E
:100F50005E06F0E095E0EE0FFF1F9A95E1F7E81BC3
:100F6000F109E55AFD4F878D0E94A20480915B062E
:100F7000803120F45D985E985F9803C05A985B9822
:100F80005C982B9A2B9880915E068F5F80935E060B
:100F900080915E068032C8F280915B068F5F8093FD
:100FA0005B0680915B06803211F410925B062A98F2
:100FB0002998089580E094E0EBE5F2E01192019722
:100FC000E9F70895CF93DF93CDB7DEB722970FB639
:100FD000F894DEBF0FBECDBF88E289838EE08A839E
:100FE0000000000089818150898389818823C1F7AD
:100FF0008A8181508A838A81882391F722960FB64D
:10100000F894DEBF0FBECDBFDF91CF9108950F934F
:101010001F932F933F934F935F9350E046E038E147
:1010200020E23093C1004093C200082F10E01093DB
:10103000C5000093C4002093C0005F914F913F9181
:101040002F911F910F9108955F936F938F935091FC
:10105000C00055FFFCCF8093C60061E060FB55F9EE
:101060005093C0008F916F915F9108955F9350915D
:10107000C00057FFFCCF8091C6005F9108955F9339
:101080005091C00057FFFCCF8091C600DDDF5F911B
:1010900008958091C60008954F938F9340E0899101
:1010A0008093C6008413FBCF8F914F9108958F9347
:1010B0009F932F931F930F9300E317E3982F807F45
:1010C0008295282F2A5F24FF800F24FD810FBCDF2B
:1010D0009F70892F282F2A5F24FF800F24FD810F06
:1010E000B3DF0F911F912F919F918F9108958F934F
:1010F0009F934F93482F892FDADF842FD8DF4F91AA
:101100009F918F910895329B81E080E008950F9325
:101110001F9300E317E38A3010F0810F01C0800FA6
:101120001F910F910895E0E7F0E0108290E2909314
:10113000B60022E02093B00097E09093B1001092A7
:10114000B20097BB8295880F807E81508093B30058
:10115000208378940895E0E7F0E0108280E28093A5
:10116000B60092E09093B00087E08093B1001092B7
:10117000B20087BB8DE78093B30090837894089585
:1011800080916006882311F01092600690E0089527
:101190001F920F920FB60F9211248F9380915F06CA
:1011A0008F5F80935F0680915F068D3728F01092E5
:1011B0005F0681E0809360068F910F900FBE0F90C5
:1011C0001F901895E1E6F0E090E8908382E080833C
:1011D00000000000000000000000908380830000F9
:1011E0000000089580936106609362064093630651
:1011F0000895809163068F5F8093630680916306F4
:101200008C33C0F010926306809162068F5F8093EA
:101210006206809162068C3368F0109262068091BB
:1012200061068F5F80936106809161068C3010F0BB
:1012300010926106089580936406809164066AE0C6
:101240000E94730A80936506809165068A30B8F41F
:10125000809164060E94730A9093660680916506E9
:1012600090E024E0880F991F2A95E1F780936506A6
:101270009091650680916606890F8093640680913F
:10128000640690E00895CF92DF92EF92FF920F9361
:101290001F93CF93DF93CDB7DEB723970FB6F894A4
:1012A000DEBF0FBECDBFEE24FF2487018091610613
:1012B0000E941B09C82E809162060E941B09D82E2D
:1012C000809163060E941B09EC2CFD2C082FC8019D
:1012D000B70123960FB6F894DEBF0FBECDBFDF91E6
:1012E000CF911F910F91FF90EF90DF90CF900895D5
:1012F000CF93DF93CDB7DEB723970FB6F894DEBF59
:101300000FBECDBF60E070E080E090E0209161060C
:101310003091620640916306622F732F842F2396CB
:101320000FB6F894DEBF0FBECDBFDF91CF91089509
:10133000CF93DF93CDB7DEB726970FB6F894DEBF15
:101340000FBECDBF0E9443096C837D838E83DE0177
:101350001196FE01349683E001900D928150E1F7E1
:1013600089810E9457088AE30E9424088A810E948A
:1013700057088AE30E9424088B810E94570826960A
:101380000FB6F894DEBF0FBECDBFDF91CF910895A9
:10139000FD98FC98FB980895F999FECF81BD60BD3A
:1013A000FA9AF99A0895F999FECF81BDF89A80B515
:1013B00090E00895CF93DF93EC0105C02196F901E9
:1013C00084910E9424089E01FE0184918823B1F734
:1013D000DF91CF910895CF93DF9310926F06CFE8FE
:1013E000D6E003C0CE010E94DA0980916F068823FF
:1013F000C9F3DF91CF9108950F931F93082F162FF4
:101400008BE10E9424088BE50E942408812F6AE06A
:101410000E94730A805D0E942408812F6AE00E9466
:10142000730A892F805D0E9424088BE30E942408A0
:10143000802F6AE00E94730A805D0E942408802F3A
:101440006AE00E94730A892F805D0E94240886E664
:101450000E9424081F910F9108958BE10E94240897
:101460008BE50E94240882E30E9424088AE40E94FB
:1014700024080895CF93DF93EC01109270062AC0E0
:101480000E943F08682F809170066830A9F4882375
:1014900009F163E08E5F0E94FC0980E20E9424084B
:1014A0008091700663E08E5F0E94FC098091700657
:1014B0008150809370060EC0E82FF0E0E759F94F95
:1014C0006083CE010E94CC09809170068F5F80936B
:1014D0007006219680917006863090F20E94360840
:1014E000DF91CF910895991B79E004C0991F961759
:1014F00008F0961B881F7A95C9F78095089597FB89
:10150000092E07260AD077FD04D00CD006D0002083
:101510001AF4709561957F4F0895F6F7909581952F
:101520009F4F0895AA1BBB1B51E107C0AA1FBB1FF9
:10153000A617B70710F0A61BB70B881F991F5A955F
:0E154000A9F780959095BC01CD010895FFCFCD
:10154E0013070713020F010F030E070F0E130013DD
:10155E000E130013001807130013000308080808E1
:10156E0008080808080808080308080808080808F2
:10157E0008080808080308080808080808080808E2
:10158E0008080308080808080808080808080803D7
:10159E0008080808080808080808080803080808C2
:1015AE0008080808080808080803080808080808B2
:1015BE0008080808080803080808080808080808A2
:1015CE000808080308080808080808080808080892
:1015DE000308080808080808080808080803080887
:1015EE000808080808080808080803080808080872
:1015FE000408080808040408080804040408080479
:10160E00040404080208080808080808080808085E
:10161E000802080808080808080808080808020848
:10162E000808080808080808080808020808080832
:10163E000808080808080808020808080808080822
:10164E000808080808020808080808080808080812
:10165E000808020808080808080808080808080208
:10166E0008080808080808080808080802080808F2
:10167E0008080808080808080802080808080808E2
:10168E0008080808080802080808080808080808D2
:04169E00080808022E
:00000001FF
